{
  "_format": "hh-sol-artifact-1",
  "contractName": "VotingContract",
  "sourceName": "contracts/VotingContract.sol",
  "abi": [
    {
      "inputs": [],
      "stateMutability": "nonpayable",
      "type": "constructor"
    },
    {
      "anonymous": false,
      "inputs": [
        {
          "indexed": true,
          "internalType": "uint256",
          "name": "candidateId",
          "type": "uint256"
        },
        {
          "indexed": false,
          "internalType": "string",
          "name": "age",
          "type": "string"
        },
        {
          "indexed": false,
          "internalType": "string",
          "name": "name",
          "type": "string"
        },
        {
          "indexed": false,
          "internalType": "uint256",
          "name": "voteCount",
          "type": "uint256"
        },
        {
          "indexed": false,
          "internalType": "address",
          "name": "_address",
          "type": "address"
        },
        {
          "indexed": false,
          "internalType": "string",
          "name": "message",
          "type": "string"
        },
        {
          "indexed": false,
          "internalType": "enum VotingContract.ApprovalStatus",
          "name": "status",
          "type": "uint8"
        }
      ],
      "name": "CandidateCreate",
      "type": "event"
    },
    {
      "anonymous": false,
      "inputs": [
        {
          "indexed": true,
          "internalType": "uint256",
          "name": "voter_voterId",
          "type": "uint256"
        },
        {
          "indexed": false,
          "internalType": "string",
          "name": "voter_name",
          "type": "string"
        },
        {
          "indexed": false,
          "internalType": "address",
          "name": "voter_address",
          "type": "address"
        },
        {
          "indexed": false,
          "internalType": "bool",
          "name": "voter_voted",
          "type": "bool"
        },
        {
          "indexed": false,
          "internalType": "uint256",
          "name": "voter_vote",
          "type": "uint256"
        },
        {
          "indexed": false,
          "internalType": "string",
          "name": "message",
          "type": "string"
        },
        {
          "indexed": false,
          "internalType": "enum VotingContract.ApprovalStatus",
          "name": "status",
          "type": "uint8"
        }
      ],
      "name": "voterCreated",
      "type": "event"
    },
    {
      "inputs": [
        {
          "internalType": "address",
          "name": "_candidateAddress",
          "type": "address"
        },
        {
          "internalType": "string",
          "name": "_message",
          "type": "string"
        }
      ],
      "name": "approveCandidate",
      "outputs": [],
      "stateMutability": "nonpayable",
      "type": "function"
    },
    {
      "inputs": [
        {
          "internalType": "address",
          "name": "_voterAddress",
          "type": "address"
        },
        {
          "internalType": "string",
          "name": "_message",
          "type": "string"
        }
      ],
      "name": "approveVoter",
      "outputs": [],
      "stateMutability": "nonpayable",
      "type": "function"
    },
    {
      "inputs": [
        {
          "internalType": "uint256",
          "name": "",
          "type": "uint256"
        }
      ],
      "name": "approvedCandidates",
      "outputs": [
        {
          "internalType": "address",
          "name": "",
          "type": "address"
        }
      ],
      "stateMutability": "view",
      "type": "function"
    },
    {
      "inputs": [
        {
          "internalType": "uint256",
          "name": "",
          "type": "uint256"
        }
      ],
      "name": "approvedVoters",
      "outputs": [
        {
          "internalType": "address",
          "name": "",
          "type": "address"
        }
      ],
      "stateMutability": "view",
      "type": "function"
    },
    {
      "inputs": [
        {
          "internalType": "uint256",
          "name": "",
          "type": "uint256"
        }
      ],
      "name": "candidateAddress",
      "outputs": [
        {
          "internalType": "address",
          "name": "",
          "type": "address"
        }
      ],
      "stateMutability": "view",
      "type": "function"
    },
    {
      "inputs": [
        {
          "internalType": "address",
          "name": "",
          "type": "address"
        }
      ],
      "name": "candidates",
      "outputs": [
        {
          "internalType": "uint256",
          "name": "candidateId",
          "type": "uint256"
        },
        {
          "internalType": "string",
          "name": "age",
          "type": "string"
        },
        {
          "internalType": "string",
          "name": "name",
          "type": "string"
        },
        {
          "internalType": "string",
          "name": "ipfs",
          "type": "string"
        },
        {
          "internalType": "uint256",
          "name": "voteCount",
          "type": "uint256"
        },
        {
          "internalType": "address",
          "name": "_address",
          "type": "address"
        },
        {
          "internalType": "string",
          "name": "message",
          "type": "string"
        },
        {
          "internalType": "enum VotingContract.ApprovalStatus",
          "name": "status",
          "type": "uint8"
        }
      ],
      "stateMutability": "view",
      "type": "function"
    },
    {
      "inputs": [
        {
          "internalType": "address",
          "name": "newOwner",
          "type": "address"
        }
      ],
      "name": "changeOwner",
      "outputs": [],
      "stateMutability": "nonpayable",
      "type": "function"
    },
    {
      "inputs": [
        {
          "internalType": "uint256",
          "name": "_currentTime",
          "type": "uint256"
        }
      ],
      "name": "currentVotingStatus",
      "outputs": [
        {
          "internalType": "string",
          "name": "",
          "type": "string"
        }
      ],
      "stateMutability": "view",
      "type": "function"
    },
    {
      "inputs": [],
      "name": "getAllApprovedCandidates",
      "outputs": [
        {
          "internalType": "address[]",
          "name": "",
          "type": "address[]"
        }
      ],
      "stateMutability": "view",
      "type": "function"
    },
    {
      "inputs": [],
      "name": "getAllApprovedVoters",
      "outputs": [
        {
          "internalType": "address[]",
          "name": "",
          "type": "address[]"
        }
      ],
      "stateMutability": "view",
      "type": "function"
    },
    {
      "inputs": [
        {
          "internalType": "address",
          "name": "_address",
          "type": "address"
        }
      ],
      "name": "getCandidateData",
      "outputs": [
        {
          "internalType": "string",
          "name": "",
          "type": "string"
        },
        {
          "internalType": "string",
          "name": "",
          "type": "string"
        },
        {
          "internalType": "uint256",
          "name": "",
          "type": "uint256"
        },
        {
          "internalType": "uint256",
          "name": "",
          "type": "uint256"
        },
        {
          "internalType": "string",
          "name": "",
          "type": "string"
        },
        {
          "internalType": "address",
          "name": "",
          "type": "address"
        },
        {
          "internalType": "enum VotingContract.ApprovalStatus",
          "name": "",
          "type": "uint8"
        }
      ],
      "stateMutability": "view",
      "type": "function"
    },
    {
      "inputs": [],
      "name": "getCandidateLength",
      "outputs": [
        {
          "internalType": "uint256",
          "name": "",
          "type": "uint256"
        }
      ],
      "stateMutability": "view",
      "type": "function"
    },
    {
      "inputs": [],
      "name": "getCandidates",
      "outputs": [
        {
          "internalType": "address[]",
          "name": "",
          "type": "address[]"
        }
      ],
      "stateMutability": "view",
      "type": "function"
    },
    {
      "inputs": [],
      "name": "getVotedVotersList",
      "outputs": [
        {
          "internalType": "address[]",
          "name": "",
          "type": "address[]"
        }
      ],
      "stateMutability": "view",
      "type": "function"
    },
    {
      "inputs": [
        {
          "internalType": "address",
          "name": "_address",
          "type": "address"
        }
      ],
      "name": "getVoterData",
      "outputs": [
        {
          "internalType": "uint256",
          "name": "",
          "type": "uint256"
        },
        {
          "internalType": "string",
          "name": "",
          "type": "string"
        },
        {
          "internalType": "address",
          "name": "",
          "type": "address"
        },
        {
          "internalType": "uint256",
          "name": "",
          "type": "uint256"
        },
        {
          "internalType": "bool",
          "name": "",
          "type": "bool"
        },
        {
          "internalType": "string",
          "name": "",
          "type": "string"
        },
        {
          "internalType": "enum VotingContract.ApprovalStatus",
          "name": "status",
          "type": "uint8"
        }
      ],
      "stateMutability": "view",
      "type": "function"
    },
    {
      "inputs": [],
      "name": "getVoterList",
      "outputs": [
        {
          "internalType": "address[]",
          "name": "",
          "type": "address[]"
        }
      ],
      "stateMutability": "view",
      "type": "function"
    },
    {
      "inputs": [
        {
          "internalType": "uint256",
          "name": "_currentTime",
          "type": "uint256"
        }
      ],
      "name": "getWinningCandidate",
      "outputs": [
        {
          "internalType": "address",
          "name": "winningCandidate",
          "type": "address"
        },
        {
          "internalType": "string",
          "name": "name",
          "type": "string"
        },
        {
          "internalType": "uint256",
          "name": "voteCount",
          "type": "uint256"
        }
      ],
      "stateMutability": "view",
      "type": "function"
    },
    {
      "inputs": [
        {
          "internalType": "address",
          "name": "_candidateAddress",
          "type": "address"
        },
        {
          "internalType": "string",
          "name": "_message",
          "type": "string"
        }
      ],
      "name": "rejectCandidate",
      "outputs": [],
      "stateMutability": "nonpayable",
      "type": "function"
    },
    {
      "inputs": [
        {
          "internalType": "address",
          "name": "_voterAddress",
          "type": "address"
        },
        {
          "internalType": "string",
          "name": "_message",
          "type": "string"
        }
      ],
      "name": "rejectVoter",
      "outputs": [],
      "stateMutability": "nonpayable",
      "type": "function"
    },
    {
      "inputs": [],
      "name": "resetContract",
      "outputs": [],
      "stateMutability": "nonpayable",
      "type": "function"
    },
    {
      "inputs": [
        {
          "internalType": "address",
          "name": "_address",
          "type": "address"
        },
        {
          "internalType": "string",
          "name": "_age",
          "type": "string"
        },
        {
          "internalType": "string",
          "name": "_name",
          "type": "string"
        },
        {
          "internalType": "string",
          "name": "_ipfs",
          "type": "string"
        }
      ],
      "name": "setCandidate",
      "outputs": [],
      "stateMutability": "nonpayable",
      "type": "function"
    },
    {
      "inputs": [
        {
          "internalType": "uint256",
          "name": "_startTime",
          "type": "uint256"
        },
        {
          "internalType": "uint256",
          "name": "_endTime",
          "type": "uint256"
        }
      ],
      "name": "setVotingPeriod",
      "outputs": [],
      "stateMutability": "nonpayable",
      "type": "function"
    },
    {
      "inputs": [
        {
          "internalType": "address",
          "name": "_candidateAddress",
          "type": "address"
        },
        {
          "internalType": "string",
          "name": "_name",
          "type": "string"
        },
        {
          "internalType": "string",
          "name": "_ipfs",
          "type": "string"
        }
      ],
      "name": "updateCandidate",
      "outputs": [],
      "stateMutability": "nonpayable",
      "type": "function"
    },
    {
      "inputs": [
        {
          "internalType": "address",
          "name": "_voterAddress",
          "type": "address"
        },
        {
          "internalType": "string",
          "name": "_name",
          "type": "string"
        },
        {
          "internalType": "string",
          "name": "_ipfs",
          "type": "string"
        }
      ],
      "name": "updateVoter",
      "outputs": [],
      "stateMutability": "nonpayable",
      "type": "function"
    },
    {
      "inputs": [
        {
          "internalType": "address",
          "name": "_candidateAddress",
          "type": "address"
        }
      ],
      "name": "vote",
      "outputs": [],
      "stateMutability": "nonpayable",
      "type": "function"
    },
    {
      "inputs": [
        {
          "internalType": "uint256",
          "name": "",
          "type": "uint256"
        }
      ],
      "name": "votedVoters",
      "outputs": [
        {
          "internalType": "address",
          "name": "",
          "type": "address"
        }
      ],
      "stateMutability": "view",
      "type": "function"
    },
    {
      "inputs": [],
      "name": "voterLength",
      "outputs": [
        {
          "internalType": "uint256",
          "name": "",
          "type": "uint256"
        }
      ],
      "stateMutability": "view",
      "type": "function"
    },
    {
      "inputs": [
        {
          "internalType": "address",
          "name": "_address",
          "type": "address"
        },
        {
          "internalType": "string",
          "name": "_name",
          "type": "string"
        },
        {
          "internalType": "string",
          "name": "_ipfs",
          "type": "string"
        }
      ],
      "name": "voterRight",
      "outputs": [],
      "stateMutability": "nonpayable",
      "type": "function"
    },
    {
      "inputs": [
        {
          "internalType": "address",
          "name": "",
          "type": "address"
        }
      ],
      "name": "voters",
      "outputs": [
        {
          "internalType": "uint256",
          "name": "voter_voterId",
          "type": "uint256"
        },
        {
          "internalType": "string",
          "name": "voter_name",
          "type": "string"
        },
        {
          "internalType": "address",
          "name": "voter_address",
          "type": "address"
        },
        {
          "internalType": "bool",
          "name": "voter_voted",
          "type": "bool"
        },
        {
          "internalType": "uint256",
          "name": "voter_vote",
          "type": "uint256"
        },
        {
          "internalType": "string",
          "name": "voter_ipfs",
          "type": "string"
        },
        {
          "internalType": "string",
          "name": "message",
          "type": "string"
        },
        {
          "internalType": "enum VotingContract.ApprovalStatus",
          "name": "status",
          "type": "uint8"
        }
      ],
      "stateMutability": "view",
      "type": "function"
    },
    {
      "inputs": [
        {
          "internalType": "uint256",
          "name": "",
          "type": "uint256"
        }
      ],
      "name": "votersAddress",
      "outputs": [
        {
          "internalType": "address",
          "name": "",
          "type": "address"
        }
      ],
      "stateMutability": "view",
      "type": "function"
    },
    {
      "inputs": [],
      "name": "votingOrganizer",
      "outputs": [
        {
          "internalType": "address",
          "name": "",
          "type": "address"
        }
      ],
      "stateMutability": "view",
      "type": "function"
    }
  ],
  "bytecode": "0x608060405234801561001057600080fd5b50336000806101000a81548173ffffffffffffffffffffffffffffffffffffffff021916908373ffffffffffffffffffffffffffffffffffffffff16021790555060006001819055506000600281905550614782806100706000396000f3fe608060405234801561001057600080fd5b50600436106101e55760003560e01c80637831ffb31161010f578063aed93010116100a2578063beddc62a11610071578063beddc62a146105ba578063ef551050146105d8578063f7522a831461060a578063fad761d314610628576101e5565b8063aed9301014610544578063b181a8fc14610574578063b28d92ae1461057e578063be230f041461059c576101e5565b80638fb4cd80116100de5780638fb4cd801461049f578063a15a36c7146104d5578063a3ec138d146104f1578063a6f9dae114610528576101e5565b80637831ffb3146103ec5780637d868f061461041c5780637eb21b511461044c5780638ab66a9014610468576101e5565b80633a88251a1161018757806359632c221161015657806359632c22146103785780635cc48aa7146103945780636dd7d8ea146103b25780637820d384146103ce576101e5565b80633a88251a146102cc5780633f66f48b146102fc57806343242daa1461032c5780634a2846a81461035c576101e5565b806313ce0e58116101c357806313ce0e58146102425780631ddfe84b1461025e5780632a466ac71461027a57806337f15e7d146102b0576101e5565b806306a49fce146101ea5780630ddf0c411461020857806313182dce14610224575b600080fd5b6101f2610644565b6040516101ff9190613366565b60405180910390f35b610222600480360381019061021d919061350e565b6106d2565b005b61022c610860565b6040516102399190613366565b60405180910390f35b61025c6004803603810190610257919061350e565b6108ee565b005b6102786004803603810190610273919061350e565b610a7c565b005b610294600480360381019061028f9190613599565b610ce9565b6040516102a797969594939291906136e4565b60405180910390f35b6102ca60048036038101906102c59190613768565b6110b0565b005b6102e660048036038101906102e1919061384f565b61132f565b6040516102f3919061387c565b60405180910390f35b6103166004803603810190610311919061384f565b61136e565b604051610323919061387c565b60405180910390f35b6103466004803603810190610341919061384f565b6113ad565b604051610353919061387c565b60405180910390f35b61037660048036038101906103719190613897565b6113ec565b005b610392600480360381019061038d9190613897565b611579565b005b61039c611706565b6040516103a9919061387c565b60405180910390f35b6103cc60048036038101906103c79190613599565b61172a565b005b6103d6611af2565b6040516103e391906138f3565b60405180910390f35b6104066004803603810190610401919061384f565b611aff565b604051610413919061387c565b60405180910390f35b6104366004803603810190610431919061384f565b611b3e565b604051610443919061390e565b60405180910390f35b61046660048036038101906104619190613897565b611c71565b005b610482600480360381019061047d9190613599565b611e61565b604051610496989796959493929190613930565b60405180910390f35b6104b960048036038101906104b49190613599565b6120f6565b6040516104cc97969594939291906139e5565b60405180910390f35b6104ef60048036038101906104ea9190613a62565b612441565b005b61050b60048036038101906105069190613599565b612523565b60405161051f989796959493929190613aa2565b60405180910390f35b610542600480360381019061053d9190613599565b61273d565b005b61055e6004803603810190610559919061384f565b61287d565b60405161056b919061387c565b60405180910390f35b61057c6128bc565b005b610586612c24565b6040516105939190613366565b60405180910390f35b6105a4612cb2565b6040516105b19190613366565b60405180910390f35b6105c2612d40565b6040516105cf9190613366565b60405180910390f35b6105f260048036038101906105ed919061384f565b612dce565b60405161060193929190613b35565b60405180910390f35b610612612fca565b60405161061f91906138f3565b60405180910390f35b610642600480360381019061063d9190613897565b612fd7565b005b606060078054806020026020016040519081016040528092919081815260200182805480156106c857602002820191906000526020600020905b8160009054906101000a900473ffffffffffffffffffffffffffffffffffffffff1673ffffffffffffffffffffffffffffffffffffffff168152602001906001019080831161067e575b5050505050905090565b60008054906101000a900473ffffffffffffffffffffffffffffffffffffffff1673ffffffffffffffffffffffffffffffffffffffff163373ffffffffffffffffffffffffffffffffffffffff1614610760576040517f08c379a000000000000000000000000000000000000000000000000000000000815260040161075790613be5565b60405180910390fd5b6000600560008573ffffffffffffffffffffffffffffffffffffffff1673ffffffffffffffffffffffffffffffffffffffff1681526020019081526020016000209050600073ffffffffffffffffffffffffffffffffffffffff168160050160009054906101000a900473ffffffffffffffffffffffffffffffffffffffff1673ffffffffffffffffffffffffffffffffffffffff1603610836576040517f08c379a000000000000000000000000000000000000000000000000000000000815260040161082d90613c51565b60405180910390fd5b828160020190816108479190613e7d565b50818160030190816108599190613e7d565b5050505050565b606060088054806020026020016040519081016040528092919081815260200182805480156108e457602002820191906000526020600020905b8160009054906101000a900473ffffffffffffffffffffffffffffffffffffffff1673ffffffffffffffffffffffffffffffffffffffff168152602001906001019080831161089a575b5050505050905090565b60008054906101000a900473ffffffffffffffffffffffffffffffffffffffff1673ffffffffffffffffffffffffffffffffffffffff163373ffffffffffffffffffffffffffffffffffffffff161461097c576040517f08c379a000000000000000000000000000000000000000000000000000000000815260040161097390613be5565b60405180910390fd5b6000600660008573ffffffffffffffffffffffffffffffffffffffff1673ffffffffffffffffffffffffffffffffffffffff1681526020019081526020016000209050600073ffffffffffffffffffffffffffffffffffffffff168160020160009054906101000a900473ffffffffffffffffffffffffffffffffffffffff1673ffffffffffffffffffffffffffffffffffffffff1603610a52576040517f08c379a0000000000000000000000000000000000000000000000000000000008152600401610a4990613f9b565b60405180910390fd5b82816001019081610a639190613e7d565b5081816004019081610a759190613e7d565b5050505050565b610a8660036131c7565b6000610a9260036131dd565b90506000600660008673ffffffffffffffffffffffffffffffffffffffff1673ffffffffffffffffffffffffffffffffffffffff1681526020019081526020016000209050600015158160020160149054906101000a900460ff16151514610b2f576040517f08c379a0000000000000000000000000000000000000000000000000000000008152600401610b2690614007565b60405180910390fd5b83816001019081610b409190613e7d565b5082816004019081610b529190613e7d565b50818160000181905550848160020160006101000a81548173ffffffffffffffffffffffffffffffffffffffff021916908373ffffffffffffffffffffffffffffffffffffffff1602179055506103e8816003018190555060008160020160146101000a81548160ff02191690831515021790555060008160060160006101000a81548160ff02191690836002811115610bef57610bee61366d565b5b021790555060405180602001604052806000815250816005019081610c149190613e7d565b506009859080600181540180825580915050600190039060005260206000200160009091909190916101000a81548173ffffffffffffffffffffffffffffffffffffffff021916908373ffffffffffffffffffffffffffffffffffffffff160217905550817edb36442f775583b9320628244439d4e387c24443328576eba6f9dd6c41a88385878460020160149054906101000a900460ff168560030154866005018760060160009054906101000a900460ff16604051610cda969594939291906140ab565b60405180910390a25050505050565b6060806000806060600080600560008973ffffffffffffffffffffffffffffffffffffffff1673ffffffffffffffffffffffffffffffffffffffff168152602001908152602001600020600101600560008a73ffffffffffffffffffffffffffffffffffffffff1673ffffffffffffffffffffffffffffffffffffffff168152602001908152602001600020600201600560008b73ffffffffffffffffffffffffffffffffffffffff1673ffffffffffffffffffffffffffffffffffffffff16815260200190815260200160002060000154600560008c73ffffffffffffffffffffffffffffffffffffffff1673ffffffffffffffffffffffffffffffffffffffff16815260200190815260200160002060040154600560008d73ffffffffffffffffffffffffffffffffffffffff1673ffffffffffffffffffffffffffffffffffffffff168152602001908152602001600020600301600560008e73ffffffffffffffffffffffffffffffffffffffff1673ffffffffffffffffffffffffffffffffffffffff16815260200190815260200160002060050160009054906101000a900473ffffffffffffffffffffffffffffffffffffffff16600560008f73ffffffffffffffffffffffffffffffffffffffff1673ffffffffffffffffffffffffffffffffffffffff16815260200190815260200160002060070160009054906101000a900460ff16868054610eff90613ca0565b80601f0160208091040260200160405190810160405280929190818152602001828054610f2b90613ca0565b8015610f785780601f10610f4d57610100808354040283529160200191610f78565b820191906000526020600020905b815481529060010190602001808311610f5b57829003601f168201915b50505050509650858054610f8b90613ca0565b80601f0160208091040260200160405190810160405280929190818152602001828054610fb790613ca0565b80156110045780601f10610fd957610100808354040283529160200191611004565b820191906000526020600020905b815481529060010190602001808311610fe757829003601f168201915b5050505050955082805461101790613ca0565b80601f016020809104026020016040519081016040528092919081815260200182805461104390613ca0565b80156110905780601f1061106557610100808354040283529160200191611090565b820191906000526020600020905b81548152906001019060200180831161107357829003601f168201915b505050505092509650965096509650965096509650919395979092949650565b6040518060400160405280600281526020017f323100000000000000000000000000000000000000000000000000000000000081525080519060200120838051906020012003611135576040517f08c379a000000000000000000000000000000000000000000000000000000000815260040161112c9061418c565b60405180910390fd5b61113f60046131c7565b600061114b60046131dd565b90506000600560008773ffffffffffffffffffffffffffffffffffffffff1673ffffffffffffffffffffffffffffffffffffffff1681526020019081526020016000209050818160000181905550848160010190816111aa9190613e7d565b50838160020190816111bc9190613e7d565b5060008160040181905550858160050160006101000a81548173ffffffffffffffffffffffffffffffffffffffff021916908373ffffffffffffffffffffffffffffffffffffffff1602179055508281600301908161121b9190613e7d565b5060008160070160006101000a81548160ff021916908360028111156112445761124361366d565b5b0217905550604051806020016040528060008152508160060190816112699190613e7d565b506007869080600181540180825580915050600190039060005260206000200160009091909190916101000a81548173ffffffffffffffffffffffffffffffffffffffff021916908373ffffffffffffffffffffffffffffffffffffffff160217905550817ff072711b98f104c919afe05ff9153d92edb497886a2dc23c83384f83ba5ac9a6868684600401548a866006018760070160009054906101000a900460ff1660405161131f969594939291906141ac565b60405180910390a2505050505050565b6007818154811061133f57600080fd5b906000526020600020016000915054906101000a900473ffffffffffffffffffffffffffffffffffffffff1681565b600a818154811061137e57600080fd5b906000526020600020016000915054906101000a900473ffffffffffffffffffffffffffffffffffffffff1681565b600981815481106113bd57600080fd5b906000526020600020016000915054906101000a900473ffffffffffffffffffffffffffffffffffffffff1681565b60008054906101000a900473ffffffffffffffffffffffffffffffffffffffff1673ffffffffffffffffffffffffffffffffffffffff163373ffffffffffffffffffffffffffffffffffffffff161461147a576040517f08c379a000000000000000000000000000000000000000000000000000000000815260040161147190613be5565b60405180910390fd5b6000600660008473ffffffffffffffffffffffffffffffffffffffff1673ffffffffffffffffffffffffffffffffffffffff1681526020019081526020016000209050600060028111156114d1576114d061366d565b5b8160060160009054906101000a900460ff1660028111156114f5576114f461366d565b5b14611535576040517f08c379a000000000000000000000000000000000000000000000000000000000815260040161152c9061426e565b60405180910390fd5b60028160060160006101000a81548160ff0219169083600281111561155d5761155c61366d565b5b0217905550818160050190816115739190613e7d565b50505050565b60008054906101000a900473ffffffffffffffffffffffffffffffffffffffff1673ffffffffffffffffffffffffffffffffffffffff163373ffffffffffffffffffffffffffffffffffffffff1614611607576040517f08c379a00000000000000000000000000000000000000000000000000000000081526004016115fe90613be5565b60405180910390fd5b6000600560008473ffffffffffffffffffffffffffffffffffffffff1673ffffffffffffffffffffffffffffffffffffffff16815260200190815260200160002090506000600281111561165e5761165d61366d565b5b8160070160009054906101000a900460ff1660028111156116825761168161366d565b5b146116c2576040517f08c379a00000000000000000000000000000000000000000000000000000000081526004016116b9906142da565b60405180910390fd5b60028160070160006101000a81548160ff021916908360028111156116ea576116e961366d565b5b0217905550818160060190816117009190613e7d565b50505050565b60008054906101000a900473ffffffffffffffffffffffffffffffffffffffff1681565b600154421015801561173e57506002544211155b61177d576040517f08c379a000000000000000000000000000000000000000000000000000000000815260040161177490614346565b60405180910390fd5b6000600660003373ffffffffffffffffffffffffffffffffffffffff1673ffffffffffffffffffffffffffffffffffffffff16815260200190815260200160002090508060020160149054906101000a900460ff1615611812576040517f08c379a0000000000000000000000000000000000000000000000000000000008152600401611809906143b2565b60405180910390fd5b6000600560008473ffffffffffffffffffffffffffffffffffffffff1673ffffffffffffffffffffffffffffffffffffffff1681526020019081526020016000206000015403611897576040517f08c379a000000000000000000000000000000000000000000000000000000000815260040161188e9061441e565b60405180910390fd5b600160028111156118ab576118aa61366d565b5b8160060160009054906101000a900460ff1660028111156118cf576118ce61366d565b5b1461190f576040517f08c379a00000000000000000000000000000000000000000000000000000000081526004016119069061448a565b60405180910390fd5b6000600560008473ffffffffffffffffffffffffffffffffffffffff1673ffffffffffffffffffffffffffffffffffffffff1681526020019081526020016000209050600160028111156119665761196561366d565b5b8160070160009054906101000a900460ff16600281111561198a5761198961366d565b5b146119ca576040517f08c379a00000000000000000000000000000000000000000000000000000000081526004016119c1906144f6565b60405180910390fd5b60018260020160146101000a81548160ff021916908315150217905550600560008473ffffffffffffffffffffffffffffffffffffffff1673ffffffffffffffffffffffffffffffffffffffff168152602001908152602001600020600001548260030181905550600560008473ffffffffffffffffffffffffffffffffffffffff1673ffffffffffffffffffffffffffffffffffffffff1681526020019081526020016000206004016000815480929190611a8590614545565b91905055506008339080600181540180825580915050600190039060005260206000200160009091909190916101000a81548173ffffffffffffffffffffffffffffffffffffffff021916908373ffffffffffffffffffffffffffffffffffffffff160217905550505050565b6000600980549050905090565b60088181548110611b0f57600080fd5b906000526020600020016000915054906101000a900473ffffffffffffffffffffffffffffffffffffffff1681565b60606000600154148015611b5457506000600254145b15611b96576040518060400160405280601581526020017f566f74696e6720706572696f64206e6f742073657400000000000000000000008152509050611c6c565b600154821015611bdd576040518060400160405280601a81526020017f566f74696e6720686173206e6f742073746172746564207965740000000000008152509050611c6c565b6001548210158015611bf157506002548211155b15611c33576040518060400160405280601581526020017f566f74696e6720697320696e2070726f677265737300000000000000000000008152509050611c6c565b6040518060400160405280601081526020017f566f74696e672068617320656e6465640000000000000000000000000000000081525090505b919050565b60008054906101000a900473ffffffffffffffffffffffffffffffffffffffff1673ffffffffffffffffffffffffffffffffffffffff163373ffffffffffffffffffffffffffffffffffffffff1614611cff576040517f08c379a0000000000000000000000000000000000000000000000000000000008152600401611cf690613be5565b60405180910390fd5b6000600560008473ffffffffffffffffffffffffffffffffffffffff1673ffffffffffffffffffffffffffffffffffffffff168152602001908152602001600020905060006002811115611d5657611d5561366d565b5b8160070160009054906101000a900460ff166002811115611d7a57611d7961366d565b5b14611dba576040517f08c379a0000000000000000000000000000000000000000000000000000000008152600401611db1906142da565b60405180910390fd5b60018160070160006101000a81548160ff02191690836002811115611de257611de161366d565b5b021790555081816006019081611df89190613e7d565b50600a839080600181540180825580915050600190039060005260206000200160009091909190916101000a81548173ffffffffffffffffffffffffffffffffffffffff021916908373ffffffffffffffffffffffffffffffffffffffff160217905550505050565b6005602052806000526040600020600091509050806000015490806001018054611e8a90613ca0565b80601f0160208091040260200160405190810160405280929190818152602001828054611eb690613ca0565b8015611f035780601f10611ed857610100808354040283529160200191611f03565b820191906000526020600020905b815481529060010190602001808311611ee657829003601f168201915b505050505090806002018054611f1890613ca0565b80601f0160208091040260200160405190810160405280929190818152602001828054611f4490613ca0565b8015611f915780601f10611f6657610100808354040283529160200191611f91565b820191906000526020600020905b815481529060010190602001808311611f7457829003601f168201915b505050505090806003018054611fa690613ca0565b80601f0160208091040260200160405190810160405280929190818152602001828054611fd290613ca0565b801561201f5780601f10611ff45761010080835404028352916020019161201f565b820191906000526020600020905b81548152906001019060200180831161200257829003601f168201915b5050505050908060040154908060050160009054906101000a900473ffffffffffffffffffffffffffffffffffffffff169080600601805461206090613ca0565b80601f016020809104026020016040519081016040528092919081815260200182805461208c90613ca0565b80156120d95780601f106120ae576101008083540402835291602001916120d9565b820191906000526020600020905b8154815290600101906020018083116120bc57829003601f168201915b5050505050908060070160009054906101000a900460ff16905088565b60006060600080600060606000600660008973ffffffffffffffffffffffffffffffffffffffff1673ffffffffffffffffffffffffffffffffffffffff16815260200190815260200160002060000154600660008a73ffffffffffffffffffffffffffffffffffffffff1673ffffffffffffffffffffffffffffffffffffffff168152602001908152602001600020600101600660008b73ffffffffffffffffffffffffffffffffffffffff1673ffffffffffffffffffffffffffffffffffffffff16815260200190815260200160002060020160009054906101000a900473ffffffffffffffffffffffffffffffffffffffff16600660008c73ffffffffffffffffffffffffffffffffffffffff1673ffffffffffffffffffffffffffffffffffffffff16815260200190815260200160002060030154600660008d73ffffffffffffffffffffffffffffffffffffffff1673ffffffffffffffffffffffffffffffffffffffff16815260200190815260200160002060020160149054906101000a900460ff16600660008e73ffffffffffffffffffffffffffffffffffffffff1673ffffffffffffffffffffffffffffffffffffffff168152602001908152602001600020600401600660008f73ffffffffffffffffffffffffffffffffffffffff1673ffffffffffffffffffffffffffffffffffffffff16815260200190815260200160002060060160009054906101000a900460ff1685805461231c90613ca0565b80601f016020809104026020016040519081016040528092919081815260200182805461234890613ca0565b80156123955780601f1061236a57610100808354040283529160200191612395565b820191906000526020600020905b81548152906001019060200180831161237857829003601f168201915b505050505095508180546123a890613ca0565b80601f01602080910402602001604051908101604052809291908181526020018280546123d490613ca0565b80156124215780601f106123f657610100808354040283529160200191612421565b820191906000526020600020905b81548152906001019060200180831161240457829003601f168201915b505050505091509650965096509650965096509650919395979092949650565b60008054906101000a900473ffffffffffffffffffffffffffffffffffffffff1673ffffffffffffffffffffffffffffffffffffffff163373ffffffffffffffffffffffffffffffffffffffff16146124cf576040517f08c379a00000000000000000000000000000000000000000000000000000000081526004016124c690613be5565b60405180910390fd5b808210612511576040517f08c379a0000000000000000000000000000000000000000000000000000000008152600401612508906145ff565b60405180910390fd5b81600181905550806002819055505050565b600660205280600052604060002060009150905080600001549080600101805461254c90613ca0565b80601f016020809104026020016040519081016040528092919081815260200182805461257890613ca0565b80156125c55780601f1061259a576101008083540402835291602001916125c5565b820191906000526020600020905b8154815290600101906020018083116125a857829003601f168201915b5050505050908060020160009054906101000a900473ffffffffffffffffffffffffffffffffffffffff16908060020160149054906101000a900460ff169080600301549080600401805461261990613ca0565b80601f016020809104026020016040519081016040528092919081815260200182805461264590613ca0565b80156126925780601f1061266757610100808354040283529160200191612692565b820191906000526020600020905b81548152906001019060200180831161267557829003601f168201915b5050505050908060050180546126a790613ca0565b80601f01602080910402602001604051908101604052809291908181526020018280546126d390613ca0565b80156127205780601f106126f557610100808354040283529160200191612720565b820191906000526020600020905b81548152906001019060200180831161270357829003601f168201915b5050505050908060060160009054906101000a900460ff16905088565b60008054906101000a900473ffffffffffffffffffffffffffffffffffffffff1673ffffffffffffffffffffffffffffffffffffffff163373ffffffffffffffffffffffffffffffffffffffff16146127cb576040517f08c379a00000000000000000000000000000000000000000000000000000000081526004016127c290613be5565b60405180910390fd5b600073ffffffffffffffffffffffffffffffffffffffff168173ffffffffffffffffffffffffffffffffffffffff160361283a576040517f08c379a000000000000000000000000000000000000000000000000000000000815260040161283190614691565b60405180910390fd5b806000806101000a81548173ffffffffffffffffffffffffffffffffffffffff021916908373ffffffffffffffffffffffffffffffffffffffff16021790555050565b600b818154811061288d57600080fd5b906000526020600020016000915054906101000a900473ffffffffffffffffffffffffffffffffffffffff1681565b60008054906101000a900473ffffffffffffffffffffffffffffffffffffffff1673ffffffffffffffffffffffffffffffffffffffff163373ffffffffffffffffffffffffffffffffffffffff161461294a576040517f08c379a000000000000000000000000000000000000000000000000000000000815260040161294190613be5565b60405180910390fd5b61295460036131eb565b61295e60046131eb565b60005b600980549050811015612a9657600060098281548110612984576129836146b1565b5b9060005260206000200160009054906101000a900473ffffffffffffffffffffffffffffffffffffffff169050600660008273ffffffffffffffffffffffffffffffffffffffff1673ffffffffffffffffffffffffffffffffffffffff168152602001908152602001600020600080820160009055600182016000612a0991906131f8565b6002820160006101000a81549073ffffffffffffffffffffffffffffffffffffffff02191690556002820160146101000a81549060ff02191690556003820160009055600482016000612a5c91906131f8565b600582016000612a6c91906131f8565b6006820160006101000a81549060ff02191690555050508080612a8e90614545565b915050612961565b5060005b600780549050811015612bcb57600060078281548110612abd57612abc6146b1565b5b9060005260206000200160009054906101000a900473ffffffffffffffffffffffffffffffffffffffff169050600560008273ffffffffffffffffffffffffffffffffffffffff1673ffffffffffffffffffffffffffffffffffffffff168152602001908152602001600020600080820160009055600182016000612b4291906131f8565b600282016000612b5291906131f8565b600382016000612b6291906131f8565b60048201600090556005820160006101000a81549073ffffffffffffffffffffffffffffffffffffffff0219169055600682016000612ba191906131f8565b6007820160006101000a81549060ff02191690555050508080612bc390614545565b915050612a9a565b5060096000612bda9190613238565b60076000612be89190613238565b60086000612bf69190613238565b600b6000612c049190613238565b600a6000612c129190613238565b60006001819055506000600281905550565b60606009805480602002602001604051908101604052809291908181526020018280548015612ca857602002820191906000526020600020905b8160009054906101000a900473ffffffffffffffffffffffffffffffffffffffff1673ffffffffffffffffffffffffffffffffffffffff1681526020019060010190808311612c5e575b5050505050905090565b6060600b805480602002602001604051908101604052809291908181526020018280548015612d3657602002820191906000526020600020905b8160009054906101000a900473ffffffffffffffffffffffffffffffffffffffff1673ffffffffffffffffffffffffffffffffffffffff1681526020019060010190808311612cec575b5050505050905090565b6060600a805480602002602001604051908101604052809291908181526020018280548015612dc457602002820191906000526020600020905b8160009054906101000a900473ffffffffffffffffffffffffffffffffffffffff1673ffffffffffffffffffffffffffffffffffffffff1681526020019060010190808311612d7a575b5050505050905090565b6000606060006002548411612e18576040517f08c379a0000000000000000000000000000000000000000000000000000000008152600401612e0f9061472c565b60405180910390fd5b60008080600090505b600780549050811015612ee057600060078281548110612e4457612e436146b1565b5b9060005260206000200160009054906101000a900473ffffffffffffffffffffffffffffffffffffffff1690506000600560008373ffffffffffffffffffffffffffffffffffffffff1673ffffffffffffffffffffffffffffffffffffffff16815260200190815260200160002090508481600401541115612ecb57806004015494508193505b50508080612ed890614545565b915050612e21565b506000600560008373ffffffffffffffffffffffffffffffffffffffff1673ffffffffffffffffffffffffffffffffffffffff168152602001908152602001600020905081816002018260040154818054612f3a90613ca0565b80601f0160208091040260200160405190810160405280929190818152602001828054612f6690613ca0565b8015612fb35780601f10612f8857610100808354040283529160200191612fb3565b820191906000526020600020905b815481529060010190602001808311612f9657829003601f168201915b505050505091509550955095505050509193909250565b6000600780549050905090565b60008054906101000a900473ffffffffffffffffffffffffffffffffffffffff1673ffffffffffffffffffffffffffffffffffffffff163373ffffffffffffffffffffffffffffffffffffffff1614613065576040517f08c379a000000000000000000000000000000000000000000000000000000000815260040161305c90613be5565b60405180910390fd5b6000600660008473ffffffffffffffffffffffffffffffffffffffff1673ffffffffffffffffffffffffffffffffffffffff1681526020019081526020016000209050600060028111156130bc576130bb61366d565b5b8160060160009054906101000a900460ff1660028111156130e0576130df61366d565b5b14613120576040517f08c379a00000000000000000000000000000000000000000000000000000000081526004016131179061426e565b60405180910390fd5b60018160060160006101000a81548160ff021916908360028111156131485761314761366d565b5b02179055508181600501908161315e9190613e7d565b50600b839080600181540180825580915050600190039060005260206000200160009091909190916101000a81548173ffffffffffffffffffffffffffffffffffffffff021916908373ffffffffffffffffffffffffffffffffffffffff160217905550505050565b6001816000016000828254019250508190555050565b600081600001549050919050565b6000816000018190555050565b50805461320490613ca0565b6000825580601f106132165750613235565b601f0160209004906000526020600020908101906132349190613259565b5b50565b50805460008255906000526020600020908101906132569190613259565b50565b5b8082111561327257600081600090555060010161325a565b5090565b600081519050919050565b600082825260208201905092915050565b6000819050602082019050919050565b600073ffffffffffffffffffffffffffffffffffffffff82169050919050565b60006132cd826132a2565b9050919050565b6132dd816132c2565b82525050565b60006132ef83836132d4565b60208301905092915050565b6000602082019050919050565b600061331382613276565b61331d8185613281565b935061332883613292565b8060005b8381101561335957815161334088826132e3565b975061334b836132fb565b92505060018101905061332c565b5085935050505092915050565b600060208201905081810360008301526133808184613308565b905092915050565b6000604051905090565b600080fd5b600080fd5b6133a5816132c2565b81146133b057600080fd5b50565b6000813590506133c28161339c565b92915050565b600080fd5b600080fd5b6000601f19601f8301169050919050565b7f4e487b7100000000000000000000000000000000000000000000000000000000600052604160045260246000fd5b61341b826133d2565b810181811067ffffffffffffffff8211171561343a576134396133e3565b5b80604052505050565b600061344d613388565b90506134598282613412565b919050565b600067ffffffffffffffff821115613479576134786133e3565b5b613482826133d2565b9050602081019050919050565b82818337600083830152505050565b60006134b16134ac8461345e565b613443565b9050828152602081018484840111156134cd576134cc6133cd565b5b6134d884828561348f565b509392505050565b600082601f8301126134f5576134f46133c8565b5b813561350584826020860161349e565b91505092915050565b60008060006060848603121561352757613526613392565b5b6000613535868287016133b3565b935050602084013567ffffffffffffffff81111561355657613555613397565b5b613562868287016134e0565b925050604084013567ffffffffffffffff81111561358357613582613397565b5b61358f868287016134e0565b9150509250925092565b6000602082840312156135af576135ae613392565b5b60006135bd848285016133b3565b91505092915050565b600081519050919050565b600082825260208201905092915050565b60005b838110156136005780820151818401526020810190506135e5565b60008484015250505050565b6000613617826135c6565b61362181856135d1565b93506136318185602086016135e2565b61363a816133d2565b840191505092915050565b6000819050919050565b61365881613645565b82525050565b613667816132c2565b82525050565b7f4e487b7100000000000000000000000000000000000000000000000000000000600052602160045260246000fd5b600381106136ad576136ac61366d565b5b50565b60008190506136be8261369c565b919050565b60006136ce826136b0565b9050919050565b6136de816136c3565b82525050565b600060e08201905081810360008301526136fe818a61360c565b90508181036020830152613712818961360c565b9050613721604083018861364f565b61372e606083018761364f565b8181036080830152613740818661360c565b905061374f60a083018561365e565b61375c60c08301846136d5565b98975050505050505050565b6000806000806080858703121561378257613781613392565b5b6000613790878288016133b3565b945050602085013567ffffffffffffffff8111156137b1576137b0613397565b5b6137bd878288016134e0565b935050604085013567ffffffffffffffff8111156137de576137dd613397565b5b6137ea878288016134e0565b925050606085013567ffffffffffffffff81111561380b5761380a613397565b5b613817878288016134e0565b91505092959194509250565b61382c81613645565b811461383757600080fd5b50565b60008135905061384981613823565b92915050565b60006020828403121561386557613864613392565b5b60006138738482850161383a565b91505092915050565b6000602082019050613891600083018461365e565b92915050565b600080604083850312156138ae576138ad613392565b5b60006138bc858286016133b3565b925050602083013567ffffffffffffffff8111156138dd576138dc613397565b5b6138e9858286016134e0565b9150509250929050565b6000602082019050613908600083018461364f565b92915050565b60006020820190508181036000830152613928818461360c565b905092915050565b600061010082019050613946600083018b61364f565b8181036020830152613958818a61360c565b9050818103604083015261396c818961360c565b90508181036060830152613980818861360c565b905061398f608083018761364f565b61399c60a083018661365e565b81810360c08301526139ae818561360c565b90506139bd60e08301846136d5565b9998505050505050505050565b60008115159050919050565b6139df816139ca565b82525050565b600060e0820190506139fa600083018a61364f565b8181036020830152613a0c818961360c565b9050613a1b604083018861365e565b613a28606083018761364f565b613a3560808301866139d6565b81810360a0830152613a47818561360c565b9050613a5660c08301846136d5565b98975050505050505050565b60008060408385031215613a7957613a78613392565b5b6000613a878582860161383a565b9250506020613a988582860161383a565b9150509250929050565b600061010082019050613ab8600083018b61364f565b8181036020830152613aca818a61360c565b9050613ad9604083018961365e565b613ae660608301886139d6565b613af3608083018761364f565b81810360a0830152613b05818661360c565b905081810360c0830152613b19818561360c565b9050613b2860e08301846136d5565b9998505050505050505050565b6000606082019050613b4a600083018661365e565b8181036020830152613b5c818561360c565b9050613b6b604083018461364f565b949350505050565b7f4f6e6c79206f776e65722063616e2063616c6c20746869732066756e6374696f60008201527f6e00000000000000000000000000000000000000000000000000000000000000602082015250565b6000613bcf6021836135d1565b9150613bda82613b73565b604082019050919050565b60006020820190508181036000830152613bfe81613bc2565b9050919050565b7f43616e64696461746520646f6573206e6f742065786973740000000000000000600082015250565b6000613c3b6018836135d1565b9150613c4682613c05565b602082019050919050565b60006020820190508181036000830152613c6a81613c2e565b9050919050565b7f4e487b7100000000000000000000000000000000000000000000000000000000600052602260045260246000fd5b60006002820490506001821680613cb857607f821691505b602082108103613ccb57613cca613c71565b5b50919050565b60008190508160005260206000209050919050565b60006020601f8301049050919050565b600082821b905092915050565b600060088302613d337fffffffffffffffffffffffffffffffffffffffffffffffffffffffffffffffff82613cf6565b613d3d8683613cf6565b95508019841693508086168417925050509392505050565b6000819050919050565b6000613d7a613d75613d7084613645565b613d55565b613645565b9050919050565b6000819050919050565b613d9483613d5f565b613da8613da082613d81565b848454613d03565b825550505050565b600090565b613dbd613db0565b613dc8818484613d8b565b505050565b5b81811015613dec57613de1600082613db5565b600181019050613dce565b5050565b601f821115613e3157613e0281613cd1565b613e0b84613ce6565b81016020851015613e1a578190505b613e2e613e2685613ce6565b830182613dcd565b50505b505050565b600082821c905092915050565b6000613e5460001984600802613e36565b1980831691505092915050565b6000613e6d8383613e43565b9150826002028217905092915050565b613e86826135c6565b67ffffffffffffffff811115613e9f57613e9e6133e3565b5b613ea98254613ca0565b613eb4828285613df0565b600060209050601f831160018114613ee75760008415613ed5578287015190505b613edf8582613e61565b865550613f47565b601f198416613ef586613cd1565b60005b82811015613f1d57848901518255600182019150602085019450602081019050613ef8565b86831015613f3a5784890151613f36601f891682613e43565b8355505b6001600288020188555050505b505050505050565b7f566f74657220646f6573206e6f74206578697374000000000000000000000000600082015250565b6000613f856014836135d1565b9150613f9082613f4f565b602082019050919050565b60006020820190508181036000830152613fb481613f78565b9050919050565b7f566f74657220616c726561647920616c6c6f7765640000000000000000000000600082015250565b6000613ff16015836135d1565b9150613ffc82613fbb565b602082019050919050565b6000602082019050818103600083015261402081613fe4565b9050919050565b6000815461403481613ca0565b61403e81866135d1565b94506001821660008114614059576001811461406f576140a2565b60ff1983168652811515602002860193506140a2565b61407885613cd1565b60005b8381101561409a5781548189015260018201915060208101905061407b565b808801955050505b50505092915050565b600060c08201905081810360008301526140c5818961360c565b90506140d4602083018861365e565b6140e160408301876139d6565b6140ee606083018661364f565b81810360808301526141008185614027565b905061410f60a08301846136d5565b979650505050505050565b7f596f7520617265206e6f7420656c696769626c6520746f20626520612063616e60008201527f6469646174650000000000000000000000000000000000000000000000000000602082015250565b60006141766026836135d1565b91506141818261411a565b604082019050919050565b600060208201905081810360008301526141a581614169565b9050919050565b600060c08201905081810360008301526141c6818961360c565b905081810360208301526141da818861360c565b90506141e9604083018761364f565b6141f6606083018661365e565b81810360808301526142088185614027565b905061421760a08301846136d5565b979650505050505050565b7f566f74657220737461747573206d7573742062652070656e64696e6700000000600082015250565b6000614258601c836135d1565b915061426382614222565b602082019050919050565b600060208201905081810360008301526142878161424b565b9050919050565b7f43616e64696461746520737461747573206d7573742062652070656e64696e67600082015250565b60006142c46020836135d1565b91506142cf8261428e565b602082019050919050565b600060208201905081810360008301526142f3816142b7565b9050919050565b7f566f74696e67206973206e6f7420616374697665000000000000000000000000600082015250565b60006143306014836135d1565b915061433b826142fa565b602082019050919050565b6000602082019050818103600083015261435f81614323565b9050919050565b7f596f75206861766520616c726561647920766f74656400000000000000000000600082015250565b600061439c6016836135d1565b91506143a782614366565b602082019050919050565b600060208201905081810360008301526143cb8161438f565b9050919050565b7f496e76616c69642063616e646964617465206164647265737300000000000000600082015250565b60006144086019836135d1565b9150614413826143d2565b602082019050919050565b60006020820190508181036000830152614437816143fb565b9050919050565b7f596f7520617265206e6f7420616e20617070726f76656420766f746572000000600082015250565b6000614474601d836135d1565b915061447f8261443e565b602082019050919050565b600060208201905081810360008301526144a381614467565b9050919050565b7f43616e646964617465206973206e6f7420617070726f76656400000000000000600082015250565b60006144e06019836135d1565b91506144eb826144aa565b602082019050919050565b6000602082019050818103600083015261450f816144d3565b9050919050565b7f4e487b7100000000000000000000000000000000000000000000000000000000600052601160045260246000fd5b600061455082613645565b91507fffffffffffffffffffffffffffffffffffffffffffffffffffffffffffffffff820361458257614581614516565b5b600182019050919050565b7f53746172742074696d65206d757374206265206265666f726520656e6420746960008201527f6d65000000000000000000000000000000000000000000000000000000000000602082015250565b60006145e96022836135d1565b91506145f48261458d565b604082019050919050565b60006020820190508181036000830152614618816145dc565b9050919050565b7f4e6577206f776e65722063616e6e6f7420626520746865207a65726f2061646460008201527f7265737300000000000000000000000000000000000000000000000000000000602082015250565b600061467b6024836135d1565b91506146868261461f565b604082019050919050565b600060208201905081810360008301526146aa8161466e565b9050919050565b7f4e487b7100000000000000000000000000000000000000000000000000000000600052603260045260246000fd5b7f566f74696e6720706572696f6420686173206e6f7420656e6465642079657400600082015250565b6000614716601f836135d1565b9150614721826146e0565b602082019050919050565b6000602082019050818103600083015261474581614709565b905091905056fea2646970667358221220de281a1190afa72cd367f0e32432e3a777dd8910d69bbfeb4d7ac2f193ced24164736f6c63430008110033",
  "linkReferences": {},
  "deployedLinkReferences": {}
}