{
  "_format": "hh-sol-artifact-1",
  "contractName": "VotingContract",
  "sourceName": "contracts/VotingContract.sol",
  "abi": [
    {
      "inputs": [],
      "stateMutability": "nonpayable",
      "type": "constructor"
    },
    {
      "anonymous": false,
      "inputs": [
        {
          "indexed": true,
          "internalType": "uint256",
          "name": "candidateId",
          "type": "uint256"
        },
        {
          "indexed": false,
          "internalType": "string",
          "name": "age",
          "type": "string"
        },
        {
          "indexed": false,
          "internalType": "string",
          "name": "name",
          "type": "string"
        },
        {
          "indexed": false,
          "internalType": "uint256",
          "name": "voteCount",
          "type": "uint256"
        },
        {
          "indexed": false,
          "internalType": "address",
          "name": "_address",
          "type": "address"
        },
        {
          "indexed": false,
          "internalType": "string",
          "name": "message",
          "type": "string"
        },
        {
          "indexed": false,
          "internalType": "enum VotingContract.ApprovalStatus",
          "name": "status",
          "type": "uint8"
        }
      ],
      "name": "CandidateCreate",
      "type": "event"
    },
    {
      "anonymous": false,
      "inputs": [
        {
          "indexed": true,
          "internalType": "uint256",
          "name": "voter_voterId",
          "type": "uint256"
        },
        {
          "indexed": false,
          "internalType": "string",
          "name": "voter_name",
          "type": "string"
        },
        {
          "indexed": false,
          "internalType": "address",
          "name": "voter_address",
          "type": "address"
        },
        {
          "indexed": false,
          "internalType": "bool",
          "name": "voter_voted",
          "type": "bool"
        },
        {
          "indexed": false,
          "internalType": "uint256",
          "name": "voter_vote",
          "type": "uint256"
        },
        {
          "indexed": false,
          "internalType": "string",
          "name": "message",
          "type": "string"
        },
        {
          "indexed": false,
          "internalType": "enum VotingContract.ApprovalStatus",
          "name": "status",
          "type": "uint8"
        }
      ],
      "name": "voterCreated",
      "type": "event"
    },
    {
      "inputs": [
        {
          "internalType": "address",
          "name": "_candidateAddress",
          "type": "address"
        },
        {
          "internalType": "string",
          "name": "_message",
          "type": "string"
        }
      ],
      "name": "approveCandidate",
      "outputs": [],
      "stateMutability": "nonpayable",
      "type": "function"
    },
    {
      "inputs": [
        {
          "internalType": "address",
          "name": "_voterAddress",
          "type": "address"
        },
        {
          "internalType": "string",
          "name": "_message",
          "type": "string"
        }
      ],
      "name": "approveVoter",
      "outputs": [],
      "stateMutability": "nonpayable",
      "type": "function"
    },
    {
      "inputs": [
        {
          "internalType": "uint256",
          "name": "",
          "type": "uint256"
        }
      ],
      "name": "approvedCandidates",
      "outputs": [
        {
          "internalType": "address",
          "name": "",
          "type": "address"
        }
      ],
      "stateMutability": "view",
      "type": "function"
    },
    {
      "inputs": [
        {
          "internalType": "uint256",
          "name": "",
          "type": "uint256"
        }
      ],
      "name": "approvedVoters",
      "outputs": [
        {
          "internalType": "address",
          "name": "",
          "type": "address"
        }
      ],
      "stateMutability": "view",
      "type": "function"
    },
    {
      "inputs": [
        {
          "internalType": "uint256",
          "name": "",
          "type": "uint256"
        }
      ],
      "name": "candidateAddress",
      "outputs": [
        {
          "internalType": "address",
          "name": "",
          "type": "address"
        }
      ],
      "stateMutability": "view",
      "type": "function"
    },
    {
      "inputs": [
        {
          "internalType": "address",
          "name": "",
          "type": "address"
        }
      ],
      "name": "candidates",
      "outputs": [
        {
          "internalType": "uint256",
          "name": "candidateId",
          "type": "uint256"
        },
        {
          "internalType": "string",
          "name": "age",
          "type": "string"
        },
        {
          "internalType": "string",
          "name": "name",
          "type": "string"
        },
        {
          "internalType": "string",
          "name": "ipfs",
          "type": "string"
        },
        {
          "internalType": "uint256",
          "name": "voteCount",
          "type": "uint256"
        },
        {
          "internalType": "address",
          "name": "_address",
          "type": "address"
        },
        {
          "internalType": "string",
          "name": "message",
          "type": "string"
        },
        {
          "internalType": "enum VotingContract.ApprovalStatus",
          "name": "status",
          "type": "uint8"
        }
      ],
      "stateMutability": "view",
      "type": "function"
    },
    {
      "inputs": [
        {
          "internalType": "address",
          "name": "newOwner",
          "type": "address"
        }
      ],
      "name": "changeOwner",
      "outputs": [],
      "stateMutability": "nonpayable",
      "type": "function"
    },
    {
      "inputs": [
        {
          "internalType": "uint256",
          "name": "_currentTime",
          "type": "uint256"
        }
      ],
      "name": "currentVotingStatus",
      "outputs": [
        {
          "internalType": "string",
          "name": "",
          "type": "string"
        }
      ],
      "stateMutability": "view",
      "type": "function"
    },
    {
      "inputs": [],
      "name": "getAllApprovedCandidates",
      "outputs": [
        {
          "internalType": "address[]",
          "name": "",
          "type": "address[]"
        }
      ],
      "stateMutability": "view",
      "type": "function"
    },
    {
      "inputs": [],
      "name": "getAllApprovedVoters",
      "outputs": [
        {
          "internalType": "address[]",
          "name": "",
          "type": "address[]"
        }
      ],
      "stateMutability": "view",
      "type": "function"
    },
    {
      "inputs": [
        {
          "internalType": "address",
          "name": "_address",
          "type": "address"
        }
      ],
      "name": "getCandidateData",
      "outputs": [
        {
          "internalType": "string",
          "name": "",
          "type": "string"
        },
        {
          "internalType": "string",
          "name": "",
          "type": "string"
        },
        {
          "internalType": "uint256",
          "name": "",
          "type": "uint256"
        },
        {
          "internalType": "uint256",
          "name": "",
          "type": "uint256"
        },
        {
          "internalType": "string",
          "name": "",
          "type": "string"
        },
        {
          "internalType": "address",
          "name": "",
          "type": "address"
        },
        {
          "internalType": "enum VotingContract.ApprovalStatus",
          "name": "",
          "type": "uint8"
        }
      ],
      "stateMutability": "view",
      "type": "function"
    },
    {
      "inputs": [],
      "name": "getCandidateLength",
      "outputs": [
        {
          "internalType": "uint256",
          "name": "",
          "type": "uint256"
        }
      ],
      "stateMutability": "view",
      "type": "function"
    },
    {
      "inputs": [],
      "name": "getCandidates",
      "outputs": [
        {
          "internalType": "address[]",
          "name": "",
          "type": "address[]"
        }
      ],
      "stateMutability": "view",
      "type": "function"
    },
    {
      "inputs": [],
      "name": "getVotedVotersList",
      "outputs": [
        {
          "internalType": "address[]",
          "name": "",
          "type": "address[]"
        }
      ],
      "stateMutability": "view",
      "type": "function"
    },
    {
      "inputs": [
        {
          "internalType": "address",
          "name": "_address",
          "type": "address"
        }
      ],
      "name": "getVoterData",
      "outputs": [
        {
          "internalType": "uint256",
          "name": "",
          "type": "uint256"
        },
        {
          "internalType": "string",
          "name": "",
          "type": "string"
        },
        {
          "internalType": "address",
          "name": "",
          "type": "address"
        },
        {
          "internalType": "uint256",
          "name": "",
          "type": "uint256"
        },
        {
          "internalType": "bool",
          "name": "",
          "type": "bool"
        },
        {
          "internalType": "string",
          "name": "",
          "type": "string"
        },
        {
          "internalType": "enum VotingContract.ApprovalStatus",
          "name": "status",
          "type": "uint8"
        }
      ],
      "stateMutability": "view",
      "type": "function"
    },
    {
      "inputs": [],
      "name": "getVoterList",
      "outputs": [
        {
          "internalType": "address[]",
          "name": "",
          "type": "address[]"
        }
      ],
      "stateMutability": "view",
      "type": "function"
    },
    {
      "inputs": [
        {
          "internalType": "uint256",
          "name": "_currentTime",
          "type": "uint256"
        }
      ],
      "name": "getWinningCandidate",
      "outputs": [
        {
          "internalType": "address",
          "name": "winningCandidate",
          "type": "address"
        },
        {
          "internalType": "string",
          "name": "name",
          "type": "string"
        },
        {
          "internalType": "uint256",
          "name": "voteCount",
          "type": "uint256"
        }
      ],
      "stateMutability": "view",
      "type": "function"
    },
    {
      "inputs": [
        {
          "internalType": "address",
          "name": "_candidateAddress",
          "type": "address"
        },
        {
          "internalType": "string",
          "name": "_message",
          "type": "string"
        }
      ],
      "name": "rejectCandidate",
      "outputs": [],
      "stateMutability": "nonpayable",
      "type": "function"
    },
    {
      "inputs": [
        {
          "internalType": "address",
          "name": "_voterAddress",
          "type": "address"
        },
        {
          "internalType": "string",
          "name": "_message",
          "type": "string"
        }
      ],
      "name": "rejectVoter",
      "outputs": [],
      "stateMutability": "nonpayable",
      "type": "function"
    },
    {
      "inputs": [],
      "name": "resetContract",
      "outputs": [],
      "stateMutability": "nonpayable",
      "type": "function"
    },
    {
      "inputs": [
        {
          "internalType": "address",
          "name": "_address",
          "type": "address"
        },
        {
          "internalType": "string",
          "name": "_age",
          "type": "string"
        },
        {
          "internalType": "string",
          "name": "_name",
          "type": "string"
        },
        {
          "internalType": "string",
          "name": "_ipfs",
          "type": "string"
        }
      ],
      "name": "setCandidate",
      "outputs": [],
      "stateMutability": "nonpayable",
      "type": "function"
    },
    {
      "inputs": [
        {
          "internalType": "uint256",
          "name": "_startTime",
          "type": "uint256"
        },
        {
          "internalType": "uint256",
          "name": "_endTime",
          "type": "uint256"
        }
      ],
      "name": "setVotingPeriod",
      "outputs": [],
      "stateMutability": "nonpayable",
      "type": "function"
    },
    {
      "inputs": [
        {
          "internalType": "address",
          "name": "_candidateAddress",
          "type": "address"
        },
        {
          "internalType": "string",
          "name": "_name",
          "type": "string"
        },
        {
          "internalType": "string",
          "name": "_ipfs",
          "type": "string"
        }
      ],
      "name": "updateCandidate",
      "outputs": [],
      "stateMutability": "nonpayable",
      "type": "function"
    },
    {
      "inputs": [
        {
          "internalType": "address",
          "name": "_voterAddress",
          "type": "address"
        },
        {
          "internalType": "string",
          "name": "_name",
          "type": "string"
        },
        {
          "internalType": "string",
          "name": "_ipfs",
          "type": "string"
        }
      ],
      "name": "updateVoter",
      "outputs": [],
      "stateMutability": "nonpayable",
      "type": "function"
    },
    {
      "inputs": [
        {
          "internalType": "address",
          "name": "_candidateAddress",
          "type": "address"
        }
      ],
      "name": "vote",
      "outputs": [],
      "stateMutability": "nonpayable",
      "type": "function"
    },
    {
      "inputs": [
        {
          "internalType": "uint256",
          "name": "",
          "type": "uint256"
        }
      ],
      "name": "votedVoters",
      "outputs": [
        {
          "internalType": "address",
          "name": "",
          "type": "address"
        }
      ],
      "stateMutability": "view",
      "type": "function"
    },
    {
      "inputs": [],
      "name": "voterLength",
      "outputs": [
        {
          "internalType": "uint256",
          "name": "",
          "type": "uint256"
        }
      ],
      "stateMutability": "view",
      "type": "function"
    },
    {
      "inputs": [
        {
          "internalType": "address",
          "name": "_address",
          "type": "address"
        },
        {
          "internalType": "string",
          "name": "_name",
          "type": "string"
        },
        {
          "internalType": "string",
          "name": "_ipfs",
          "type": "string"
        }
      ],
      "name": "voterRight",
      "outputs": [],
      "stateMutability": "nonpayable",
      "type": "function"
    },
    {
      "inputs": [
        {
          "internalType": "address",
          "name": "",
          "type": "address"
        }
      ],
      "name": "voters",
      "outputs": [
        {
          "internalType": "uint256",
          "name": "voter_voterId",
          "type": "uint256"
        },
        {
          "internalType": "string",
          "name": "voter_name",
          "type": "string"
        },
        {
          "internalType": "address",
          "name": "voter_address",
          "type": "address"
        },
        {
          "internalType": "bool",
          "name": "voter_voted",
          "type": "bool"
        },
        {
          "internalType": "uint256",
          "name": "voter_vote",
          "type": "uint256"
        },
        {
          "internalType": "string",
          "name": "voter_ipfs",
          "type": "string"
        },
        {
          "internalType": "string",
          "name": "message",
          "type": "string"
        },
        {
          "internalType": "enum VotingContract.ApprovalStatus",
          "name": "status",
          "type": "uint8"
        }
      ],
      "stateMutability": "view",
      "type": "function"
    },
    {
      "inputs": [
        {
          "internalType": "uint256",
          "name": "",
          "type": "uint256"
        }
      ],
      "name": "votersAddress",
      "outputs": [
        {
          "internalType": "address",
          "name": "",
          "type": "address"
        }
      ],
      "stateMutability": "view",
      "type": "function"
    },
    {
      "inputs": [],
      "name": "votingOrganizer",
      "outputs": [
        {
          "internalType": "address",
          "name": "",
          "type": "address"
        }
      ],
      "stateMutability": "view",
      "type": "function"
    }
  ],
  "bytecode": "0x6080604052348015600f57600080fd5b50336000806101000a81548173ffffffffffffffffffffffffffffffffffffffff021916908373ffffffffffffffffffffffffffffffffffffffff160217905550600060018190555060006002819055506147708061006f6000396000f3fe608060405234801561001057600080fd5b50600436106101e55760003560e01c80637831ffb31161010f578063aed93010116100a2578063beddc62a11610071578063beddc62a146105ba578063ef551050146105d8578063f7522a831461060a578063fad761d314610628576101e5565b8063aed9301014610544578063b181a8fc14610574578063b28d92ae1461057e578063be230f041461059c576101e5565b80638fb4cd80116100de5780638fb4cd801461049f578063a15a36c7146104d5578063a3ec138d146104f1578063a6f9dae114610528576101e5565b80637831ffb3146103ec5780637d868f061461041c5780637eb21b511461044c5780638ab66a9014610468576101e5565b80633a88251a1161018757806359632c221161015657806359632c22146103785780635cc48aa7146103945780636dd7d8ea146103b25780637820d384146103ce576101e5565b80633a88251a146102cc5780633f66f48b146102fc57806343242daa1461032c5780634a2846a81461035c576101e5565b806313ce0e58116101c357806313ce0e58146102425780631ddfe84b1461025e5780632a466ac71461027a57806337f15e7d146102b0576101e5565b806306a49fce146101ea5780630ddf0c411461020857806313182dce14610224575b600080fd5b6101f2610644565b6040516101ff9190613354565b60405180910390f35b610222600480360381019061021d91906134fc565b6106d2565b005b61022c610860565b6040516102399190613354565b60405180910390f35b61025c600480360381019061025791906134fc565b6108ee565b005b610278600480360381019061027391906134fc565b610a7c565b005b610294600480360381019061028f9190613587565b610ce9565b6040516102a797969594939291906136d2565b60405180910390f35b6102ca60048036038101906102c59190613756565b6110b0565b005b6102e660048036038101906102e1919061383d565b61132f565b6040516102f3919061386a565b60405180910390f35b6103166004803603810190610311919061383d565b61136e565b604051610323919061386a565b60405180910390f35b6103466004803603810190610341919061383d565b6113ad565b604051610353919061386a565b60405180910390f35b61037660048036038101906103719190613885565b6113ec565b005b610392600480360381019061038d9190613885565b611579565b005b61039c611706565b6040516103a9919061386a565b60405180910390f35b6103cc60048036038101906103c79190613587565b61172a565b005b6103d6611af2565b6040516103e391906138e1565b60405180910390f35b6104066004803603810190610401919061383d565b611aff565b604051610413919061386a565b60405180910390f35b6104366004803603810190610431919061383d565b611b3e565b60405161044391906138fc565b60405180910390f35b61046660048036038101906104619190613885565b611c71565b005b610482600480360381019061047d9190613587565b611e61565b60405161049698979695949392919061391e565b60405180910390f35b6104b960048036038101906104b49190613587565b6120f6565b6040516104cc97969594939291906139d3565b60405180910390f35b6104ef60048036038101906104ea9190613a50565b612441565b005b61050b60048036038101906105069190613587565b612523565b60405161051f989796959493929190613a90565b60405180910390f35b610542600480360381019061053d9190613587565b61273d565b005b61055e6004803603810190610559919061383d565b61287d565b60405161056b919061386a565b60405180910390f35b61057c6128bc565b005b610586612c18565b6040516105939190613354565b60405180910390f35b6105a4612ca6565b6040516105b19190613354565b60405180910390f35b6105c2612d34565b6040516105cf9190613354565b60405180910390f35b6105f260048036038101906105ed919061383d565b612dc2565b60405161060193929190613b23565b60405180910390f35b610612612fb8565b60405161061f91906138e1565b60405180910390f35b610642600480360381019061063d9190613885565b612fc5565b005b606060078054806020026020016040519081016040528092919081815260200182805480156106c857602002820191906000526020600020905b8160009054906101000a900473ffffffffffffffffffffffffffffffffffffffff1673ffffffffffffffffffffffffffffffffffffffff168152602001906001019080831161067e575b5050505050905090565b60008054906101000a900473ffffffffffffffffffffffffffffffffffffffff1673ffffffffffffffffffffffffffffffffffffffff163373ffffffffffffffffffffffffffffffffffffffff1614610760576040517f08c379a000000000000000000000000000000000000000000000000000000000815260040161075790613bd3565b60405180910390fd5b6000600560008573ffffffffffffffffffffffffffffffffffffffff1673ffffffffffffffffffffffffffffffffffffffff1681526020019081526020016000209050600073ffffffffffffffffffffffffffffffffffffffff168160050160009054906101000a900473ffffffffffffffffffffffffffffffffffffffff1673ffffffffffffffffffffffffffffffffffffffff1603610836576040517f08c379a000000000000000000000000000000000000000000000000000000000815260040161082d90613c3f565b60405180910390fd5b828160020190816108479190613e6b565b50818160030190816108599190613e6b565b5050505050565b606060088054806020026020016040519081016040528092919081815260200182805480156108e457602002820191906000526020600020905b8160009054906101000a900473ffffffffffffffffffffffffffffffffffffffff1673ffffffffffffffffffffffffffffffffffffffff168152602001906001019080831161089a575b5050505050905090565b60008054906101000a900473ffffffffffffffffffffffffffffffffffffffff1673ffffffffffffffffffffffffffffffffffffffff163373ffffffffffffffffffffffffffffffffffffffff161461097c576040517f08c379a000000000000000000000000000000000000000000000000000000000815260040161097390613bd3565b60405180910390fd5b6000600660008573ffffffffffffffffffffffffffffffffffffffff1673ffffffffffffffffffffffffffffffffffffffff1681526020019081526020016000209050600073ffffffffffffffffffffffffffffffffffffffff168160020160009054906101000a900473ffffffffffffffffffffffffffffffffffffffff1673ffffffffffffffffffffffffffffffffffffffff1603610a52576040517f08c379a0000000000000000000000000000000000000000000000000000000008152600401610a4990613f89565b60405180910390fd5b82816001019081610a639190613e6b565b5081816004019081610a759190613e6b565b5050505050565b610a8660036131b5565b6000610a9260036131cb565b90506000600660008673ffffffffffffffffffffffffffffffffffffffff1673ffffffffffffffffffffffffffffffffffffffff1681526020019081526020016000209050600015158160020160149054906101000a900460ff16151514610b2f576040517f08c379a0000000000000000000000000000000000000000000000000000000008152600401610b2690613ff5565b60405180910390fd5b83816001019081610b409190613e6b565b5082816004019081610b529190613e6b565b50818160000181905550848160020160006101000a81548173ffffffffffffffffffffffffffffffffffffffff021916908373ffffffffffffffffffffffffffffffffffffffff1602179055506103e8816003018190555060008160020160146101000a81548160ff02191690831515021790555060008160060160006101000a81548160ff02191690836002811115610bef57610bee61365b565b5b021790555060405180602001604052806000815250816005019081610c149190613e6b565b506009859080600181540180825580915050600190039060005260206000200160009091909190916101000a81548173ffffffffffffffffffffffffffffffffffffffff021916908373ffffffffffffffffffffffffffffffffffffffff160217905550817edb36442f775583b9320628244439d4e387c24443328576eba6f9dd6c41a88385878460020160149054906101000a900460ff168560030154866005018760060160009054906101000a900460ff16604051610cda96959493929190614099565b60405180910390a25050505050565b6060806000806060600080600560008973ffffffffffffffffffffffffffffffffffffffff1673ffffffffffffffffffffffffffffffffffffffff168152602001908152602001600020600101600560008a73ffffffffffffffffffffffffffffffffffffffff1673ffffffffffffffffffffffffffffffffffffffff168152602001908152602001600020600201600560008b73ffffffffffffffffffffffffffffffffffffffff1673ffffffffffffffffffffffffffffffffffffffff16815260200190815260200160002060000154600560008c73ffffffffffffffffffffffffffffffffffffffff1673ffffffffffffffffffffffffffffffffffffffff16815260200190815260200160002060040154600560008d73ffffffffffffffffffffffffffffffffffffffff1673ffffffffffffffffffffffffffffffffffffffff168152602001908152602001600020600301600560008e73ffffffffffffffffffffffffffffffffffffffff1673ffffffffffffffffffffffffffffffffffffffff16815260200190815260200160002060050160009054906101000a900473ffffffffffffffffffffffffffffffffffffffff16600560008f73ffffffffffffffffffffffffffffffffffffffff1673ffffffffffffffffffffffffffffffffffffffff16815260200190815260200160002060070160009054906101000a900460ff16868054610eff90613c8e565b80601f0160208091040260200160405190810160405280929190818152602001828054610f2b90613c8e565b8015610f785780601f10610f4d57610100808354040283529160200191610f78565b820191906000526020600020905b815481529060010190602001808311610f5b57829003601f168201915b50505050509650858054610f8b90613c8e565b80601f0160208091040260200160405190810160405280929190818152602001828054610fb790613c8e565b80156110045780601f10610fd957610100808354040283529160200191611004565b820191906000526020600020905b815481529060010190602001808311610fe757829003601f168201915b5050505050955082805461101790613c8e565b80601f016020809104026020016040519081016040528092919081815260200182805461104390613c8e565b80156110905780601f1061106557610100808354040283529160200191611090565b820191906000526020600020905b81548152906001019060200180831161107357829003601f168201915b505050505092509650965096509650965096509650919395979092949650565b6040518060400160405280600281526020017f323100000000000000000000000000000000000000000000000000000000000081525080519060200120838051906020012003611135576040517f08c379a000000000000000000000000000000000000000000000000000000000815260040161112c9061417a565b60405180910390fd5b61113f60046131b5565b600061114b60046131cb565b90506000600560008773ffffffffffffffffffffffffffffffffffffffff1673ffffffffffffffffffffffffffffffffffffffff1681526020019081526020016000209050818160000181905550848160010190816111aa9190613e6b565b50838160020190816111bc9190613e6b565b5060008160040181905550858160050160006101000a81548173ffffffffffffffffffffffffffffffffffffffff021916908373ffffffffffffffffffffffffffffffffffffffff1602179055508281600301908161121b9190613e6b565b5060008160070160006101000a81548160ff021916908360028111156112445761124361365b565b5b0217905550604051806020016040528060008152508160060190816112699190613e6b565b506007869080600181540180825580915050600190039060005260206000200160009091909190916101000a81548173ffffffffffffffffffffffffffffffffffffffff021916908373ffffffffffffffffffffffffffffffffffffffff160217905550817ff072711b98f104c919afe05ff9153d92edb497886a2dc23c83384f83ba5ac9a6868684600401548a866006018760070160009054906101000a900460ff1660405161131f9695949392919061419a565b60405180910390a2505050505050565b6007818154811061133f57600080fd5b906000526020600020016000915054906101000a900473ffffffffffffffffffffffffffffffffffffffff1681565b600a818154811061137e57600080fd5b906000526020600020016000915054906101000a900473ffffffffffffffffffffffffffffffffffffffff1681565b600981815481106113bd57600080fd5b906000526020600020016000915054906101000a900473ffffffffffffffffffffffffffffffffffffffff1681565b60008054906101000a900473ffffffffffffffffffffffffffffffffffffffff1673ffffffffffffffffffffffffffffffffffffffff163373ffffffffffffffffffffffffffffffffffffffff161461147a576040517f08c379a000000000000000000000000000000000000000000000000000000000815260040161147190613bd3565b60405180910390fd5b6000600660008473ffffffffffffffffffffffffffffffffffffffff1673ffffffffffffffffffffffffffffffffffffffff1681526020019081526020016000209050600060028111156114d1576114d061365b565b5b8160060160009054906101000a900460ff1660028111156114f5576114f461365b565b5b14611535576040517f08c379a000000000000000000000000000000000000000000000000000000000815260040161152c9061425c565b60405180910390fd5b60028160060160006101000a81548160ff0219169083600281111561155d5761155c61365b565b5b0217905550818160050190816115739190613e6b565b50505050565b60008054906101000a900473ffffffffffffffffffffffffffffffffffffffff1673ffffffffffffffffffffffffffffffffffffffff163373ffffffffffffffffffffffffffffffffffffffff1614611607576040517f08c379a00000000000000000000000000000000000000000000000000000000081526004016115fe90613bd3565b60405180910390fd5b6000600560008473ffffffffffffffffffffffffffffffffffffffff1673ffffffffffffffffffffffffffffffffffffffff16815260200190815260200160002090506000600281111561165e5761165d61365b565b5b8160070160009054906101000a900460ff1660028111156116825761168161365b565b5b146116c2576040517f08c379a00000000000000000000000000000000000000000000000000000000081526004016116b9906142c8565b60405180910390fd5b60028160070160006101000a81548160ff021916908360028111156116ea576116e961365b565b5b0217905550818160060190816117009190613e6b565b50505050565b60008054906101000a900473ffffffffffffffffffffffffffffffffffffffff1681565b600154421015801561173e57506002544211155b61177d576040517f08c379a000000000000000000000000000000000000000000000000000000000815260040161177490614334565b60405180910390fd5b6000600660003373ffffffffffffffffffffffffffffffffffffffff1673ffffffffffffffffffffffffffffffffffffffff16815260200190815260200160002090508060020160149054906101000a900460ff1615611812576040517f08c379a0000000000000000000000000000000000000000000000000000000008152600401611809906143a0565b60405180910390fd5b6000600560008473ffffffffffffffffffffffffffffffffffffffff1673ffffffffffffffffffffffffffffffffffffffff1681526020019081526020016000206000015403611897576040517f08c379a000000000000000000000000000000000000000000000000000000000815260040161188e9061440c565b60405180910390fd5b600160028111156118ab576118aa61365b565b5b8160060160009054906101000a900460ff1660028111156118cf576118ce61365b565b5b1461190f576040517f08c379a000000000000000000000000000000000000000000000000000000000815260040161190690614478565b60405180910390fd5b6000600560008473ffffffffffffffffffffffffffffffffffffffff1673ffffffffffffffffffffffffffffffffffffffff1681526020019081526020016000209050600160028111156119665761196561365b565b5b8160070160009054906101000a900460ff16600281111561198a5761198961365b565b5b146119ca576040517f08c379a00000000000000000000000000000000000000000000000000000000081526004016119c1906144e4565b60405180910390fd5b60018260020160146101000a81548160ff021916908315150217905550600560008473ffffffffffffffffffffffffffffffffffffffff1673ffffffffffffffffffffffffffffffffffffffff168152602001908152602001600020600001548260030181905550600560008473ffffffffffffffffffffffffffffffffffffffff1673ffffffffffffffffffffffffffffffffffffffff1681526020019081526020016000206004016000815480929190611a8590614533565b91905055506008339080600181540180825580915050600190039060005260206000200160009091909190916101000a81548173ffffffffffffffffffffffffffffffffffffffff021916908373ffffffffffffffffffffffffffffffffffffffff160217905550505050565b6000600980549050905090565b60088181548110611b0f57600080fd5b906000526020600020016000915054906101000a900473ffffffffffffffffffffffffffffffffffffffff1681565b60606000600154148015611b5457506000600254145b15611b96576040518060400160405280601581526020017f566f74696e6720706572696f64206e6f742073657400000000000000000000008152509050611c6c565b600154821015611bdd576040518060400160405280601a81526020017f566f74696e6720686173206e6f742073746172746564207965740000000000008152509050611c6c565b6001548210158015611bf157506002548211155b15611c33576040518060400160405280601581526020017f566f74696e6720697320696e2070726f677265737300000000000000000000008152509050611c6c565b6040518060400160405280601081526020017f566f74696e672068617320656e6465640000000000000000000000000000000081525090505b919050565b60008054906101000a900473ffffffffffffffffffffffffffffffffffffffff1673ffffffffffffffffffffffffffffffffffffffff163373ffffffffffffffffffffffffffffffffffffffff1614611cff576040517f08c379a0000000000000000000000000000000000000000000000000000000008152600401611cf690613bd3565b60405180910390fd5b6000600560008473ffffffffffffffffffffffffffffffffffffffff1673ffffffffffffffffffffffffffffffffffffffff168152602001908152602001600020905060006002811115611d5657611d5561365b565b5b8160070160009054906101000a900460ff166002811115611d7a57611d7961365b565b5b14611dba576040517f08c379a0000000000000000000000000000000000000000000000000000000008152600401611db1906142c8565b60405180910390fd5b60018160070160006101000a81548160ff02191690836002811115611de257611de161365b565b5b021790555081816006019081611df89190613e6b565b50600a839080600181540180825580915050600190039060005260206000200160009091909190916101000a81548173ffffffffffffffffffffffffffffffffffffffff021916908373ffffffffffffffffffffffffffffffffffffffff160217905550505050565b6005602052806000526040600020600091509050806000015490806001018054611e8a90613c8e565b80601f0160208091040260200160405190810160405280929190818152602001828054611eb690613c8e565b8015611f035780601f10611ed857610100808354040283529160200191611f03565b820191906000526020600020905b815481529060010190602001808311611ee657829003601f168201915b505050505090806002018054611f1890613c8e565b80601f0160208091040260200160405190810160405280929190818152602001828054611f4490613c8e565b8015611f915780601f10611f6657610100808354040283529160200191611f91565b820191906000526020600020905b815481529060010190602001808311611f7457829003601f168201915b505050505090806003018054611fa690613c8e565b80601f0160208091040260200160405190810160405280929190818152602001828054611fd290613c8e565b801561201f5780601f10611ff45761010080835404028352916020019161201f565b820191906000526020600020905b81548152906001019060200180831161200257829003601f168201915b5050505050908060040154908060050160009054906101000a900473ffffffffffffffffffffffffffffffffffffffff169080600601805461206090613c8e565b80601f016020809104026020016040519081016040528092919081815260200182805461208c90613c8e565b80156120d95780601f106120ae576101008083540402835291602001916120d9565b820191906000526020600020905b8154815290600101906020018083116120bc57829003601f168201915b5050505050908060070160009054906101000a900460ff16905088565b60006060600080600060606000600660008973ffffffffffffffffffffffffffffffffffffffff1673ffffffffffffffffffffffffffffffffffffffff16815260200190815260200160002060000154600660008a73ffffffffffffffffffffffffffffffffffffffff1673ffffffffffffffffffffffffffffffffffffffff168152602001908152602001600020600101600660008b73ffffffffffffffffffffffffffffffffffffffff1673ffffffffffffffffffffffffffffffffffffffff16815260200190815260200160002060020160009054906101000a900473ffffffffffffffffffffffffffffffffffffffff16600660008c73ffffffffffffffffffffffffffffffffffffffff1673ffffffffffffffffffffffffffffffffffffffff16815260200190815260200160002060030154600660008d73ffffffffffffffffffffffffffffffffffffffff1673ffffffffffffffffffffffffffffffffffffffff16815260200190815260200160002060020160149054906101000a900460ff16600660008e73ffffffffffffffffffffffffffffffffffffffff1673ffffffffffffffffffffffffffffffffffffffff168152602001908152602001600020600401600660008f73ffffffffffffffffffffffffffffffffffffffff1673ffffffffffffffffffffffffffffffffffffffff16815260200190815260200160002060060160009054906101000a900460ff1685805461231c90613c8e565b80601f016020809104026020016040519081016040528092919081815260200182805461234890613c8e565b80156123955780601f1061236a57610100808354040283529160200191612395565b820191906000526020600020905b81548152906001019060200180831161237857829003601f168201915b505050505095508180546123a890613c8e565b80601f01602080910402602001604051908101604052809291908181526020018280546123d490613c8e565b80156124215780601f106123f657610100808354040283529160200191612421565b820191906000526020600020905b81548152906001019060200180831161240457829003601f168201915b505050505091509650965096509650965096509650919395979092949650565b60008054906101000a900473ffffffffffffffffffffffffffffffffffffffff1673ffffffffffffffffffffffffffffffffffffffff163373ffffffffffffffffffffffffffffffffffffffff16146124cf576040517f08c379a00000000000000000000000000000000000000000000000000000000081526004016124c690613bd3565b60405180910390fd5b808210612511576040517f08c379a0000000000000000000000000000000000000000000000000000000008152600401612508906145ed565b60405180910390fd5b81600181905550806002819055505050565b600660205280600052604060002060009150905080600001549080600101805461254c90613c8e565b80601f016020809104026020016040519081016040528092919081815260200182805461257890613c8e565b80156125c55780601f1061259a576101008083540402835291602001916125c5565b820191906000526020600020905b8154815290600101906020018083116125a857829003601f168201915b5050505050908060020160009054906101000a900473ffffffffffffffffffffffffffffffffffffffff16908060020160149054906101000a900460ff169080600301549080600401805461261990613c8e565b80601f016020809104026020016040519081016040528092919081815260200182805461264590613c8e565b80156126925780601f1061266757610100808354040283529160200191612692565b820191906000526020600020905b81548152906001019060200180831161267557829003601f168201915b5050505050908060050180546126a790613c8e565b80601f01602080910402602001604051908101604052809291908181526020018280546126d390613c8e565b80156127205780601f106126f557610100808354040283529160200191612720565b820191906000526020600020905b81548152906001019060200180831161270357829003601f168201915b5050505050908060060160009054906101000a900460ff16905088565b60008054906101000a900473ffffffffffffffffffffffffffffffffffffffff1673ffffffffffffffffffffffffffffffffffffffff163373ffffffffffffffffffffffffffffffffffffffff16146127cb576040517f08c379a00000000000000000000000000000000000000000000000000000000081526004016127c290613bd3565b60405180910390fd5b600073ffffffffffffffffffffffffffffffffffffffff168173ffffffffffffffffffffffffffffffffffffffff160361283a576040517f08c379a00000000000000000000000000000000000000000000000000000000081526004016128319061467f565b60405180910390fd5b806000806101000a81548173ffffffffffffffffffffffffffffffffffffffff021916908373ffffffffffffffffffffffffffffffffffffffff16021790555050565b600b818154811061288d57600080fd5b906000526020600020016000915054906101000a900473ffffffffffffffffffffffffffffffffffffffff1681565b60008054906101000a900473ffffffffffffffffffffffffffffffffffffffff1673ffffffffffffffffffffffffffffffffffffffff163373ffffffffffffffffffffffffffffffffffffffff161461294a576040517f08c379a000000000000000000000000000000000000000000000000000000000815260040161294190613bd3565b60405180910390fd5b61295460036131d9565b61295e60046131d9565b60005b600980549050811015612a90576000600982815481106129845761298361469f565b5b9060005260206000200160009054906101000a900473ffffffffffffffffffffffffffffffffffffffff169050600660008273ffffffffffffffffffffffffffffffffffffffff1673ffffffffffffffffffffffffffffffffffffffff168152602001908152602001600020600080820160009055600182016000612a0991906131e6565b6002820160006101000a81549073ffffffffffffffffffffffffffffffffffffffff02191690556002820160146101000a81549060ff02191690556003820160009055600482016000612a5c91906131e6565b600582016000612a6c91906131e6565b6006820160006101000a81549060ff02191690555050508080600101915050612961565b5060005b600780549050811015612bbf57600060078281548110612ab757612ab661469f565b5b9060005260206000200160009054906101000a900473ffffffffffffffffffffffffffffffffffffffff169050600560008273ffffffffffffffffffffffffffffffffffffffff1673ffffffffffffffffffffffffffffffffffffffff168152602001908152602001600020600080820160009055600182016000612b3c91906131e6565b600282016000612b4c91906131e6565b600382016000612b5c91906131e6565b60048201600090556005820160006101000a81549073ffffffffffffffffffffffffffffffffffffffff0219169055600682016000612b9b91906131e6565b6007820160006101000a81549060ff02191690555050508080600101915050612a94565b5060096000612bce9190613226565b60076000612bdc9190613226565b60086000612bea9190613226565b600b6000612bf89190613226565b600a6000612c069190613226565b60006001819055506000600281905550565b60606009805480602002602001604051908101604052809291908181526020018280548015612c9c57602002820191906000526020600020905b8160009054906101000a900473ffffffffffffffffffffffffffffffffffffffff1673ffffffffffffffffffffffffffffffffffffffff1681526020019060010190808311612c52575b5050505050905090565b6060600b805480602002602001604051908101604052809291908181526020018280548015612d2a57602002820191906000526020600020905b8160009054906101000a900473ffffffffffffffffffffffffffffffffffffffff1673ffffffffffffffffffffffffffffffffffffffff1681526020019060010190808311612ce0575b5050505050905090565b6060600a805480602002602001604051908101604052809291908181526020018280548015612db857602002820191906000526020600020905b8160009054906101000a900473ffffffffffffffffffffffffffffffffffffffff1673ffffffffffffffffffffffffffffffffffffffff1681526020019060010190808311612d6e575b5050505050905090565b6000606060006002548411612e0c576040517f08c379a0000000000000000000000000000000000000000000000000000000008152600401612e039061471a565b60405180910390fd5b60008080600090505b600780549050811015612ece57600060078281548110612e3857612e3761469f565b5b9060005260206000200160009054906101000a900473ffffffffffffffffffffffffffffffffffffffff1690506000600560008373ffffffffffffffffffffffffffffffffffffffff1673ffffffffffffffffffffffffffffffffffffffff16815260200190815260200160002090508481600401541115612ebf57806004015494508193505b50508080600101915050612e15565b506000600560008373ffffffffffffffffffffffffffffffffffffffff1673ffffffffffffffffffffffffffffffffffffffff168152602001908152602001600020905081816002018260040154818054612f2890613c8e565b80601f0160208091040260200160405190810160405280929190818152602001828054612f5490613c8e565b8015612fa15780601f10612f7657610100808354040283529160200191612fa1565b820191906000526020600020905b815481529060010190602001808311612f8457829003601f168201915b505050505091509550955095505050509193909250565b6000600780549050905090565b60008054906101000a900473ffffffffffffffffffffffffffffffffffffffff1673ffffffffffffffffffffffffffffffffffffffff163373ffffffffffffffffffffffffffffffffffffffff1614613053576040517f08c379a000000000000000000000000000000000000000000000000000000000815260040161304a90613bd3565b60405180910390fd5b6000600660008473ffffffffffffffffffffffffffffffffffffffff1673ffffffffffffffffffffffffffffffffffffffff1681526020019081526020016000209050600060028111156130aa576130a961365b565b5b8160060160009054906101000a900460ff1660028111156130ce576130cd61365b565b5b1461310e576040517f08c379a00000000000000000000000000000000000000000000000000000000081526004016131059061425c565b60405180910390fd5b60018160060160006101000a81548160ff021916908360028111156131365761313561365b565b5b02179055508181600501908161314c9190613e6b565b50600b839080600181540180825580915050600190039060005260206000200160009091909190916101000a81548173ffffffffffffffffffffffffffffffffffffffff021916908373ffffffffffffffffffffffffffffffffffffffff160217905550505050565b6001816000016000828254019250508190555050565b600081600001549050919050565b6000816000018190555050565b5080546131f290613c8e565b6000825580601f106132045750613223565b601f0160209004906000526020600020908101906132229190613247565b5b50565b50805460008255906000526020600020908101906132449190613247565b50565b5b80821115613260576000816000905550600101613248565b5090565b600081519050919050565b600082825260208201905092915050565b6000819050602082019050919050565b600073ffffffffffffffffffffffffffffffffffffffff82169050919050565b60006132bb82613290565b9050919050565b6132cb816132b0565b82525050565b60006132dd83836132c2565b60208301905092915050565b6000602082019050919050565b600061330182613264565b61330b818561326f565b935061331683613280565b8060005b8381101561334757815161332e88826132d1565b9750613339836132e9565b92505060018101905061331a565b5085935050505092915050565b6000602082019050818103600083015261336e81846132f6565b905092915050565b6000604051905090565b600080fd5b600080fd5b613393816132b0565b811461339e57600080fd5b50565b6000813590506133b08161338a565b92915050565b600080fd5b600080fd5b6000601f19601f8301169050919050565b7f4e487b7100000000000000000000000000000000000000000000000000000000600052604160045260246000fd5b613409826133c0565b810181811067ffffffffffffffff82111715613428576134276133d1565b5b80604052505050565b600061343b613376565b90506134478282613400565b919050565b600067ffffffffffffffff821115613467576134666133d1565b5b613470826133c0565b9050602081019050919050565b82818337600083830152505050565b600061349f61349a8461344c565b613431565b9050828152602081018484840111156134bb576134ba6133bb565b5b6134c684828561347d565b509392505050565b600082601f8301126134e3576134e26133b6565b5b81356134f384826020860161348c565b91505092915050565b60008060006060848603121561351557613514613380565b5b6000613523868287016133a1565b935050602084013567ffffffffffffffff81111561354457613543613385565b5b613550868287016134ce565b925050604084013567ffffffffffffffff81111561357157613570613385565b5b61357d868287016134ce565b9150509250925092565b60006020828403121561359d5761359c613380565b5b60006135ab848285016133a1565b91505092915050565b600081519050919050565b600082825260208201905092915050565b60005b838110156135ee5780820151818401526020810190506135d3565b60008484015250505050565b6000613605826135b4565b61360f81856135bf565b935061361f8185602086016135d0565b613628816133c0565b840191505092915050565b6000819050919050565b61364681613633565b82525050565b613655816132b0565b82525050565b7f4e487b7100000000000000000000000000000000000000000000000000000000600052602160045260246000fd5b6003811061369b5761369a61365b565b5b50565b60008190506136ac8261368a565b919050565b60006136bc8261369e565b9050919050565b6136cc816136b1565b82525050565b600060e08201905081810360008301526136ec818a6135fa565b9050818103602083015261370081896135fa565b905061370f604083018861363d565b61371c606083018761363d565b818103608083015261372e81866135fa565b905061373d60a083018561364c565b61374a60c08301846136c3565b98975050505050505050565b600080600080608085870312156137705761376f613380565b5b600061377e878288016133a1565b945050602085013567ffffffffffffffff81111561379f5761379e613385565b5b6137ab878288016134ce565b935050604085013567ffffffffffffffff8111156137cc576137cb613385565b5b6137d8878288016134ce565b925050606085013567ffffffffffffffff8111156137f9576137f8613385565b5b613805878288016134ce565b91505092959194509250565b61381a81613633565b811461382557600080fd5b50565b60008135905061383781613811565b92915050565b60006020828403121561385357613852613380565b5b600061386184828501613828565b91505092915050565b600060208201905061387f600083018461364c565b92915050565b6000806040838503121561389c5761389b613380565b5b60006138aa858286016133a1565b925050602083013567ffffffffffffffff8111156138cb576138ca613385565b5b6138d7858286016134ce565b9150509250929050565b60006020820190506138f6600083018461363d565b92915050565b6000602082019050818103600083015261391681846135fa565b905092915050565b600061010082019050613934600083018b61363d565b8181036020830152613946818a6135fa565b9050818103604083015261395a81896135fa565b9050818103606083015261396e81886135fa565b905061397d608083018761363d565b61398a60a083018661364c565b81810360c083015261399c81856135fa565b90506139ab60e08301846136c3565b9998505050505050505050565b60008115159050919050565b6139cd816139b8565b82525050565b600060e0820190506139e8600083018a61363d565b81810360208301526139fa81896135fa565b9050613a09604083018861364c565b613a16606083018761363d565b613a2360808301866139c4565b81810360a0830152613a3581856135fa565b9050613a4460c08301846136c3565b98975050505050505050565b60008060408385031215613a6757613a66613380565b5b6000613a7585828601613828565b9250506020613a8685828601613828565b9150509250929050565b600061010082019050613aa6600083018b61363d565b8181036020830152613ab8818a6135fa565b9050613ac7604083018961364c565b613ad460608301886139c4565b613ae1608083018761363d565b81810360a0830152613af381866135fa565b905081810360c0830152613b0781856135fa565b9050613b1660e08301846136c3565b9998505050505050505050565b6000606082019050613b38600083018661364c565b8181036020830152613b4a81856135fa565b9050613b59604083018461363d565b949350505050565b7f4f6e6c79206f776e65722063616e2063616c6c20746869732066756e6374696f60008201527f6e00000000000000000000000000000000000000000000000000000000000000602082015250565b6000613bbd6021836135bf565b9150613bc882613b61565b604082019050919050565b60006020820190508181036000830152613bec81613bb0565b9050919050565b7f43616e64696461746520646f6573206e6f742065786973740000000000000000600082015250565b6000613c296018836135bf565b9150613c3482613bf3565b602082019050919050565b60006020820190508181036000830152613c5881613c1c565b9050919050565b7f4e487b7100000000000000000000000000000000000000000000000000000000600052602260045260246000fd5b60006002820490506001821680613ca657607f821691505b602082108103613cb957613cb8613c5f565b5b50919050565b60008190508160005260206000209050919050565b60006020601f8301049050919050565b600082821b905092915050565b600060088302613d217fffffffffffffffffffffffffffffffffffffffffffffffffffffffffffffffff82613ce4565b613d2b8683613ce4565b95508019841693508086168417925050509392505050565b6000819050919050565b6000613d68613d63613d5e84613633565b613d43565b613633565b9050919050565b6000819050919050565b613d8283613d4d565b613d96613d8e82613d6f565b848454613cf1565b825550505050565b600090565b613dab613d9e565b613db6818484613d79565b505050565b5b81811015613dda57613dcf600082613da3565b600181019050613dbc565b5050565b601f821115613e1f57613df081613cbf565b613df984613cd4565b81016020851015613e08578190505b613e1c613e1485613cd4565b830182613dbb565b50505b505050565b600082821c905092915050565b6000613e4260001984600802613e24565b1980831691505092915050565b6000613e5b8383613e31565b9150826002028217905092915050565b613e74826135b4565b67ffffffffffffffff811115613e8d57613e8c6133d1565b5b613e978254613c8e565b613ea2828285613dde565b600060209050601f831160018114613ed55760008415613ec3578287015190505b613ecd8582613e4f565b865550613f35565b601f198416613ee386613cbf565b60005b82811015613f0b57848901518255600182019150602085019450602081019050613ee6565b86831015613f285784890151613f24601f891682613e31565b8355505b6001600288020188555050505b505050505050565b7f566f74657220646f6573206e6f74206578697374000000000000000000000000600082015250565b6000613f736014836135bf565b9150613f7e82613f3d565b602082019050919050565b60006020820190508181036000830152613fa281613f66565b9050919050565b7f566f74657220616c726561647920616c6c6f7765640000000000000000000000600082015250565b6000613fdf6015836135bf565b9150613fea82613fa9565b602082019050919050565b6000602082019050818103600083015261400e81613fd2565b9050919050565b6000815461402281613c8e565b61402c81866135bf565b94506001821660008114614047576001811461405d57614090565b60ff198316865281151560200286019350614090565b61406685613cbf565b60005b8381101561408857815481890152600182019150602081019050614069565b808801955050505b50505092915050565b600060c08201905081810360008301526140b381896135fa565b90506140c2602083018861364c565b6140cf60408301876139c4565b6140dc606083018661363d565b81810360808301526140ee8185614015565b90506140fd60a08301846136c3565b979650505050505050565b7f596f7520617265206e6f7420656c696769626c6520746f20626520612063616e60008201527f6469646174650000000000000000000000000000000000000000000000000000602082015250565b60006141646026836135bf565b915061416f82614108565b604082019050919050565b6000602082019050818103600083015261419381614157565b9050919050565b600060c08201905081810360008301526141b481896135fa565b905081810360208301526141c881886135fa565b90506141d7604083018761363d565b6141e4606083018661364c565b81810360808301526141f68185614015565b905061420560a08301846136c3565b979650505050505050565b7f566f74657220737461747573206d7573742062652070656e64696e6700000000600082015250565b6000614246601c836135bf565b915061425182614210565b602082019050919050565b6000602082019050818103600083015261427581614239565b9050919050565b7f43616e64696461746520737461747573206d7573742062652070656e64696e67600082015250565b60006142b26020836135bf565b91506142bd8261427c565b602082019050919050565b600060208201905081810360008301526142e1816142a5565b9050919050565b7f566f74696e67206973206e6f7420616374697665000000000000000000000000600082015250565b600061431e6014836135bf565b9150614329826142e8565b602082019050919050565b6000602082019050818103600083015261434d81614311565b9050919050565b7f596f75206861766520616c726561647920766f74656400000000000000000000600082015250565b600061438a6016836135bf565b915061439582614354565b602082019050919050565b600060208201905081810360008301526143b98161437d565b9050919050565b7f496e76616c69642063616e646964617465206164647265737300000000000000600082015250565b60006143f66019836135bf565b9150614401826143c0565b602082019050919050565b60006020820190508181036000830152614425816143e9565b9050919050565b7f596f7520617265206e6f7420616e20617070726f76656420766f746572000000600082015250565b6000614462601d836135bf565b915061446d8261442c565b602082019050919050565b6000602082019050818103600083015261449181614455565b9050919050565b7f43616e646964617465206973206e6f7420617070726f76656400000000000000600082015250565b60006144ce6019836135bf565b91506144d982614498565b602082019050919050565b600060208201905081810360008301526144fd816144c1565b9050919050565b7f4e487b7100000000000000000000000000000000000000000000000000000000600052601160045260246000fd5b600061453e82613633565b91507fffffffffffffffffffffffffffffffffffffffffffffffffffffffffffffffff82036145705761456f614504565b5b600182019050919050565b7f53746172742074696d65206d757374206265206265666f726520656e6420746960008201527f6d65000000000000000000000000000000000000000000000000000000000000602082015250565b60006145d76022836135bf565b91506145e28261457b565b604082019050919050565b60006020820190508181036000830152614606816145ca565b9050919050565b7f4e6577206f776e65722063616e6e6f7420626520746865207a65726f2061646460008201527f7265737300000000000000000000000000000000000000000000000000000000602082015250565b60006146696024836135bf565b91506146748261460d565b604082019050919050565b600060208201905081810360008301526146988161465c565b9050919050565b7f4e487b7100000000000000000000000000000000000000000000000000000000600052603260045260246000fd5b7f566f74696e6720706572696f6420686173206e6f7420656e6465642079657400600082015250565b6000614704601f836135bf565b915061470f826146ce565b602082019050919050565b60006020820190508181036000830152614733816146f7565b905091905056fea264697066735822122022a9a9ba2fc3cfacb5fd265f20080134fd17235de066e2de994f7b5042f1e1c564736f6c634300081c0033",
  "linkReferences": {},
  "deployedLinkReferences": {}
}